:020000040800F2
:1000000000500020C10000080101000801010008A3
:1000100000000000000000000000000000000000E0
:1000200000000000000000000000000001010008C6
:100030000000000000000000010100088D0600081B
:100040000101000801010008010100080101000888
:1000500001010008B90600080101000801010008BB
:100060000101000801010008010100080101000868
:100070000101000801010008010100080101000858
:100080000101000801010008010100080101000848
:10009000010100080101000801010008B90500087C
:1000A00001010008010100082D06000801010008F7
:1000B0000101000801010008010100080101000818
:1000C00010B50A4A0A4B0B498B4209D300210A4B4F
:1000D0000A4A934207D300F017FB00F039FA10BD2B
:1000E00001CA01C3F0E702C3F3E7C0460C1F0008D2
:1000F0000000002038000020380000207009002097
:1001000010B500F025FA10BD014B18687047C046C5
:10011000B00000200222114B00281CD1104A506070
:100120001060032219680A431A60C02219689204F9
:100130000A431A60C022196812050A431A60C022D5
:10014000196892050A431A60C022196812060A4308
:100150001A60802292029A617047C04600040050E3
:10016000003800400322084B19689143023A0A43C1
:100170001A6042425041054A4042104080225202D9
:10018000801898617047C046000400500100FFFFCE
:10019000054B1878002805D0044B58680123400708
:1001A000C00F58407047C0468400002000700040D7
:1001B0000200FA2070B56025094C8000A3682B422C
:1001C00009D1A36813405E1EB3418B4205D00138AC
:1001D0000028F3D170BD0020FCE70120FAE7C046FB
:1001E00000300140002380210A4A490113600A4A75
:1001F00053601360094A91618021094AC901906ADC
:1002000001439162916A074801409162064A137066
:100210007047C046005400400038004000040050C1
:1002200000100240FFBFFFFF8C00002010B5134BF1
:100230001A78012A0ED1124A1178124A1278914284
:1002400008D1022210498C68144203D0896809063B
:1002500000D41A701A78022A03D1FFF7C3FF0120D5
:1002600010BD1B78012B05D1084B1B68C31A002059
:10027000132BF5D9FFF7B6FF0220F1E78C00002021
:100280008D0000208E0000200038004088000020F3
:10029000F7B51E00013B00910192222B01D90020ED
:1002A000FEBDFFF775FF0028F9D08022FA23264C07
:1002B0005200A2619B00216911421ED1013B002B1B
:1002C000F9D1ECE70121009B204F5B5D08003B70FA
:1002D000FFF76EFF00281AD03B78019A535501357D
:1002E000AE420ED101210220FFF762FF00280FD09D
:1002F00000218020FFF75CFF0AE0802300255B04DB
:10030000A36101210220FFF753FF0028DAD100206A
:1003100080235B00A361DB18C046013B002BFBD1AF
:100320000028BDD10A4B1860C02322681343236004
:10033000C02322689B0013432360C02322681B0153
:1003400013432360ABE7C046000400500C3001406B
:1003500000300140F8B54B1E05000C0016000020CF
:100360001F2B52D8294F3B78012B4ED0FFF73AFF75
:10037000274B284A1C70002327491370E85CC85497
:100380000133A342FAD30120387010708022234B2E
:1003900052011E60224B234C9A611968224A114077
:1003A000802252040A431A601A6820490A408021B8
:1003B00049050A431A605A6A22405A621C681C4A5C
:1003C000144080221205224380241A605A6A2406AF
:1003D000120112095A621A689200920822434024BC
:1003E0001A602A78224055426A41124D52422A40F0
:1003F0008025ED0152199A6199610F4A0F4B1A60DD
:10040000A0225A601A6814431C60F8BD8C000020BA
:100410008E0000208D0000208F000020880000202A
:1004200000040050FFFF0FFFFFFFFFFCFFFFFFCFA7
:10043000FFFFFFF300C0FF3F04C30000003800408F
:10044000802270B5344B5201596A88B00A435A620F
:100450005A6A3249324C0A405A62226823689B1A0F
:10046000132B55D980222F4B52009A6159680020D6
:100470000A435A6019682C4A1140802252020A43EA
:100480001A601A6A29490A401A62C02219689143FF
:10049000403A0A431A601A6A25490A401A621968E2
:1004A000244A1140802292000A431A601A6A2249A3
:1004B0000A401A621968214A1140802212010A4337
:1004C0001A60D5221E4B92001A60032305AA0493DA
:1004D00004A90133FFF7DCFE226823689B1A012B75
:1004E00018D9184B184E0693002306A9300007931D
:1004F00001F0DCF8154D3100684601F025F96C4635
:100500002B0023CC23C31A002368136008B070BDEE
:1005100030BFA3E730BFE0E700100240FFEFFFFF6E
:10052000B000002000040050FFFFFCFFFF0FFFFFA2
:10053000FFFFF0FFFFFCFFFFFFFF0FFFFFF3FFFFD9
:1005400000300140910200083C00002074000020AF
:1005500037B572B60223144C0120E26A134D1343DF
:10056000E362E36AFFF7FEFD03232A689A43023B36
:1005700013432B60A36B0E4A1340A36300230D4A61
:100580000193019B93420AD90020FFF7C3FD0C237E
:100590002A689A43083B13432B6030BFFDE7C046EF
:1005A000019B01330193ECE700100240000400506E
:1005B000FFF7FFFF7F841E00174AE2219369C900FD
:1005C000180008400B4205D0002313600322134B90
:1005D0001A70704720210B420CD0D161104B106073
:1005E000104A1B7812789B1A5A1E93410B4A023309
:1005F0001370EEE79B07ECD509490A4B08781B7886
:100600009842E6D20B78D8B20133DBB20B70064BBE
:100610001B5CDBB29362DCE7005400408C000020DE
:100620008D0000208E0000208F0000206022114BE2
:100630009968114205D000225A600F4B03321A709C
:1006400070479A689207FBD50C4A0D4910780978D3
:1006500088420AD21378D9B20133DBB21370094B46
:10066000094A5B5CDBB21370EAE780215A688A436F
:100670005A60E5E7003800408C0000208D00002023
:100680008E0000208F0000200C380040084A10B572
:100690001368032101331360A023DB051B690548A0
:1006A0000B4002391268594000F048FC10BDC046AA
:1006B000B0000020F400002003230D4A10B5536160
:1006C000A0220124D20511690A4A1940126861402A
:1006D000094800F033FC094A1378D9B2002B06D13F
:1006E000074B084858609960147007221A6010BDC3
:1006F00000040140B0000020F4000020AF00002002
:1007000010E000E09F0F0000F0B58DB072B6072337
:10071000BC4FBD4CFA6A00201343FB62BA6BBB4B63
:10072000C0251343BB637A6BB94BAD0013437B63A6
:10073000B84A7B6BE3681340E360FFF7EBFC0120F2
:10074000FFF710FDA02380220C21DB05D2039A6164
:100750002268C0208A4308390A43226003228C465B
:10076000216800019143023A11432160616891437D
:100770006160196829431960196801431960C02133
:100780001E68890131431960C0211E6889020E4329
:100790001E60DE68A0490E40DE60E3689F4EC02107
:1007A0003340E360C0232668890233432360236813
:1007B0001D43256023681843206023689848194327
:1007C00021600168974B19408B231B010B43036089
:1007D0000920954B196881431143196039680A4310
:1007E00008213A603A688A433A60904A604639681C
:1007F000014200D029E3013A002AF7D1FFF7A8FE11
:10080000D9690022C9B2AA2907D1D969914204DA6B
:10081000DB6901321B02DB0F5A40854B0C201A703A
:100820000293A0230322FF26DB05196801259143CB
:100830001960196881431960D968801881437D481F
:10084000D9608168B14381607B487C4E0168114367
:100850000160816811438160C1681143C1604261D8
:10086000C120774980008446085806408020C00196
:1008700030436646885180267248F605006A0002B9
:10088000000A30436F4E306220200860C020266886
:10089000800430432060C02026680005304320607B
:1008A000C0202668800530432060C02026680006EE
:1008B00030432060C62080008446634E08580640BE
:1008C000802000043043664688518020C0040860C0
:1008D000002619695D4811406940002200F02EFB96
:1008E0005B4A5C4B53605C4B96601D700723136042
:1008F00062B6FFF7A5FD594D32002800584900F0B7
:1009000081FD5849584801F01CF8029B1B78B342FE
:1009100002D1280000F069FD0826EFF3108572B6B9
:100920004A480AA900F03EFB010085F310884B4DB0
:10093000002806D028000AAA013E00F00AFD002E79
:10094000EBD1494B1A7804921B7F0593AB6B06934E
:100950002B0061331B7807932B0060331B780893BF
:10096000424B1B780993FFF713FC039002902B7AFC
:10097000002B1BD000222E003D4B64361A703378BA
:10098000934213D16B7F934200D118E2394B1B780D
:10099000934200D013E2FFF7FBFB002800D10EE2E8
:1009A000FFF74EFD3378002B00D108E2314B324D7A
:1009B0001B78002B02D1294800F017FD039B002B68
:1009C00003D0280000F0CEFE02902C4D2348029B5D
:1009D0002A682349029000F034FD029B234E1B7AC3
:1009E0002D683078002B4BD008286DD801F0B2F973
:1009F0000601260136014001500159016A016C00CF
:100A00004D00C0460010024000040050004020107D
:100A100001120000F0FFFF00FFFFFCFF3FF0FCFFB2
:100A2000007000404FE7FFFF00200240A086010059
:100A3000840000200000014000040140FF00FFFF8F
:100A400000E100E000ED00E0FFFF00FFF400002007
:100A500010E000E09F0F0000AF000020040900201C
:100A600074000020901E0008C8000020B80000207C
:100A7000380000206D0000203C000020B000002065
:100A8000082802D0D14B6A1D1A600823D048337061
:100A900001F0FEF80522CF4B996811420CD0CB4AE9
:100AA0001268AA1A08D48022796A92000A437A62EC
:100AB0007A6AC9490A407A629A68520700D488E083
:100AC000102299680A439A60C44D2B7A002B00D0FB
:100AD00019E100266B6A2800029300F051FC012204
:100AE000BF4B32401B68BF4E01930090029B300009
:100AF000BD4900F041FF012233780392049A9342EA
:100B00001AD1337F059A934216D1AB6B069A934262
:100B100012D12B0061331B78079A93420CD16035B8
:100B20002B78089A934207D1B04B099A1B789B1AED
:100B30001A00531E9A4103920021A84D2A7B6B7B19
:100B400002919A4205D12B7D6A7D9B1A5A425A41E5
:100B500002922B7AA64A0492002B00D0DFE02800F4
:100B600000F031FC002800D1D9E0029B002B00D11D
:100B7000D5E0300000F0F7FE002800D1CFE09B4B1D
:100B80001B78002B00D0CAE09A4B1A78002A00D0BC
:100B9000C5E0013204981A7000F0EFFD061E00D087
:100BA000BAE6280000F021FC80235B00A361924B91
:100BB0001E605E60C023226813432360C023226846
:100BC0009B0013432360C02322681B01134323604F
:100BD000A2E6012101209A681140024202D00222BD
:100BE00099686FE79A68854802409A60844A854808
:100BF0001368034013607D4B197065E7744801F07A
:100C000047F80022734B7E49DA608022D2051A61D0
:100C100007225A61802292029A6280220868D203D7
:100C200002430A608022996852050A439A600122B1
:100C3000664B05351D606D4B1A7045E7634A1368B6
:100C4000EB1A00D540E7802362491B06886805350A
:100C500003438B601560654B0222EDE75D4B9B689B
:100C6000002B4ADB594B01351D60032333702BE702
:100C700056490B68EB1A00D526E70120554B053580
:100C800018609A6802439A600422584B0D60D3E7BB
:100C90000122504B1B6813422FD04C4B1D60052383
:100CA000E4E74A490B68EB1A00D50DE71422494BDB
:100CB00005351A609868103A02439A6006224B4B39
:100CC0000D60B9E7434B1A68D20604D5404800F0DE
:100CD000DFFF0723CAE71A6852070ED51A6C4A4B82
:100CE00092B219883A482B0089B200F0D5FF374BF1
:100CF00008351D6005223D4B9EE7344B1B68ED1AFD
:100D000000D5E1E6E2E7FFF743FA002800D1E0E68C
:100D1000334B2F48196801F005F80600DAE6049B0A
:100D200032331B78049372B6384B394A9A5C002AE6
:100D300009D1384A38499A5C5B5C9A4203D1374BF7
:100D40005B699B0701D062B6E6E52B7A002B2FD1B9
:100D5000280000F038FB00282AD0049B002B27D164
:100D6000029B002B24D0300000F0FDFD00281FD096
:100D70001E4B1B78002B1BD1294A2A4913602A4A93
:100D80002A48137080239B044B600368284A04257B
:100D90001340036001230E000268134303600B69D4
:100DA0002B430B6101F06CF83369AB433361CAE745
:100DB000039B002BC7D1BFF34F8F30BFC3E7084B56
:100DC0000B48196800F000FDF0E5C046B4000020B3
:100DD000BC00002000240140FFFDFFFF04090020AB
:100DE000B0000020C8000020901E0008B8000020BD
:100DF0003C0000203800002000300140FFFFFFEFE2
:100E000008270140FFFFBFFF7800F81FF400002013
:100E10000A0800000808000009080000000401405A
:100E200010E000E000ED00E0AF00002000700040A6
:100E3000FDDFFFFFF021DA6909030A40C021090341
:100E40008A4200D1DCE40022E7E40C20F968074A7A
:100E50001140074A0A43FA60064AF968014004292A
:100E6000E8D0013A002AF8D1C8E4C0460C7FFFFF61
:100E700091800000A086010003008218934200D1F7
:100E8000704719700133F9E770B50E0015000021A5
:100E90001C220400FFF7F0FF054B9E4200D90026FC
:100EA000012326606560A5612561237270BDC0467F
:100EB000FFE0F50510B5447B8C4201D0417303611E
:100EC000047B8C421DD004691C1B072C19D90173AB
:100ED000447D944201D042758361047D944212D0D6
:100EE00084691C1B072C0ED90275002A0CD0012125
:100EF00043600172002A10D00023036043728172A4
:100F000010BD0021E4E700220029F0D142689B1ABD
:100F1000084A9342F4D90172F2E7037D002BEFD126
:100F20000368054A934202D801330360E7E7417240
:100F3000E6E7C0462F750000FEE0F50570B5134CDE
:100F4000134D435D0155043C0251124CDBB2065D6A
:100F5000002E05D1104E0133865DDBB29E420BD1CF
:100F600001230E4A0355815A0D4B994203D0835AEF
:100F700001339BB2835270BD445DE40004192171BA
:100F8000415DC9000A504355F5E7C046040800001A
:100F9000080800000A080000090800000C0800000A
:100FA000FFFF000070B5144D0300465D134C144A5A
:100FB000F0B2002E0DD01348185C0871802000019B
:100FC00018580860195D0220C9B2995400225A5578
:100FD00070BD9D5C1C5DA542FAD0985CC0001818DD
:100FE00000790871985CC000C0580860995C0120C5
:100FF0000131C9B29954EBE70A0800000808000063
:101000000908000004080000F0B505000C001600F7
:1010100085B0022A12D10121426801805218426033
:1010200000201A68A081226120751B79A2619B07AC
:10103000DB0F63752172626005B0F0BD012AFBD140
:101040008A7A0F7D01924A7A200002920A680392FE
:1010500019791B688A07D20F3140FFF72BFF2B78D5
:10106000002BE9D0002F07D1237D002B04D06B6823
:101070006E7001336B60DFE7039B2360019BA372FB
:10108000029B6372D8E70000F7B58900431801930B
:101090000123FF265B42019A904201D1D843FEBD55
:1010A0000022012407683900D14031404B4008211B
:1010B0005D08AC461D002540234200D0054D634627
:1010C00001396B400029F3D10832202AEBD10430DA
:1010D000E1E7C0462083B8ED114B026870B504000B
:1010E00000259A421AD183680E4A934216D8C268E4
:1010F000012A13D842680169D24391420ED1DB43E1
:1011000042699A420AD106218669FFF7BDFF8642ED
:1011100004D1054BE569ED186B425D41280070BDB7
:1011200001344451FFE0F505CCABB2BCF0B58FB053
:1011300003914022002104000126FFF79DFE5F235A
:101140000027E360A672FB0001930833049706AD05
:10115000013705930296039B03982A001B680199A7
:10116000C068984700281ED1E67228600290019B53
:10117000059A0133019304359342ECD1029B002B75
:1011800005D006AD2800FFF7A7FF002811D1602F7A
:10119000D9D1E37A002B02D1637A002B01D101234C
:1011A00023720FB0F0BD2B68002BE0D00023A37298
:1011B000DDE7627A6B68002A15D061685A1A8B42A3
:1011C0000BD1AA6823689A4205D1EB685A1E934155
:1011D000227A9342DBD0E672D9E7802109068A425F
:1011E000F9D0002AD3DD6360089B049A2360099B31
:1011F000E2605A1E934166722372C8E770B51E0002
:1012000003003C331D780400002D20D1114B99427E
:101210001BD8114B016283614368C9430133C36129
:10122000DB4342628362C16206211830FFF72CFF64
:101230000A4B2063E06860216363013000F01AFE0E
:10124000656101352161A663E563280070BD002555
:10125000FBE7C046FFE0F5050134445134544D43EB
:1012600013000200F0B53C3285B001921278040000
:101270000D00002A11D027003D373A78C868002AAF
:1012800050D08A6819009047002806D0012806D05F
:101290000023A3873F340133237005B0F0BD636999
:1012A0000726002B00D05E1E21692B68C900E86864
:1012B000891903AA98470028EAD00022636993425B
:1012C00002D00636B600325903999142E0D1002689
:1012D00001333E706361092BDFD121692B68C9009E
:1012E000E868891903AA98470028D1D02300B200E2
:1012F00018339A58039B9A42CAD10136082EECD172
:10130000236A01992360636A5A1E93412372E36939
:10131000002263602369A272E360012363720A7092
:101320003E34B9E762690726002A00D0561E2169BB
:101330006D68C9008919002A02D00636B6003259F4
:10134000A8470123002802D1A0873F34A4E73B70BF
:10135000A3E710B5040013001C300A002100FFF7BA
:1013600053FE230064331A78002A08D0627F002AD3
:1013700005D0216AA26E914201D000221A7010BDE0
:101380000300007F002801D1643318787047020001
:101390000300002060321278824211D11A002D32EF
:1013A000127882420CD0596A1A68914208D11A0008
:1013B0002C3211781A7F914202D15B7F0130584064
:1013C000012318407047030010B560331A780023DA
:1013D00004009A4206D1FFF7DAFF0123002801D169
:1013E000643423780120184010BD02006432137861
:1013F000002B06D1013313708383036A0133036228
:101400008366704770B504000E00150000216C2241
:10141000FFF732FD200031002430FFF787FE2A005D
:101420002000616AFFF730FD23002C331B782377FF
:1014300023002F331B78002B02D02000FFF7D5FFAD
:1014400070BDF8B50700060060371D003B7804004A
:101450002436002B02D03000FFF702FF2300633355
:101460001A78002A04D0002220001A70FFF7BDFF6E
:10147000230062331A78002A16D000221A70627F85
:10148000636A002A0BD0E16D226A914207D1002BDA
:1014900005D122000D32D27F002A00D1A383226819
:1014A0009A4201D10023A3723B78002B21D1230063
:1014B00064331B78002B1CD1002D1AD0227F002A08
:1014C00002D00122637F5A40200023002D30007893
:1014D00021680D33002808D0606A884205D1DB7F7F
:1014E000934202D1637F002B03D03000236AFFF7C1
:1014F00085FEF8BD70B504003130007800280AD0B0
:10150000200033300078002805D125686068A8479E
:10151000002801D12086002070BD37B505236A461A
:1015200001AD13800C002A006946033BFFF7E2FF80
:10153000002806D071236878207018404342584133
:10154000C0B23EBDC023F0B595B004000D000192BD
:101550009B00994221D2030032331B78002B1CD10F
:10156000030030331B78CE08002B02D0836AB342CD
:101570002ED003231F22002103A80293FFF77CFC37
:10158000730102AF1A0A7A70BB703900232320005E
:101590000BAAFFF7AFFF002802D1002015B0F0BD65
:1015A000210020000BAB083128301A795F79120234
:1015B0003F043A43DF7804333A439F783F063A4387
:1015C00004C18842F1D1230001223033A6621A708F
:1015D00007231D400235AD002B59019A01201360ED
:1015E000DCE7C023F0B59B0004000E00150089B0B5
:1015F000994202D3002009B0F0BD030032330193B9
:101600001B78002BF6D1062202A94A710200CF1DD9
:10161000303239001370FFF780FF0028EAD00C2326
:101620003A781A42E6D102AA02A920000B3B063200
:101630000531FFF75FFF0028DCD039002000FFF7FD
:101640006CFF0028D6D002233A781A42D2D09E40AE
:1016500004A90B70330A4B702B0A0B712B0CCD7045
:101660004B712D0E0723200006AA8E708D71FFF797
:1016700041FF0028BED00123019A1370BBE703008D
:1016800013B532331A78002A01D1022016BD002288
:101690001A706B46DC1D2100FFF73FFF0028F4D0D5
:1016A0000E2322781A42F0D10120EFE7F0B50400B2
:1016B00089B038220D000021FFF7DEFB2300270050
:1016C00006CD06C3012504236A4631375371002134
:1016D0009B3306223D7003A80293FFF7CDFB6A46B9
:1016E00069462B00200006320531FFF703FF002872
:1016F00014D06B46DE1D31002000FFF70EFF0028DE
:101700000CD00E2332781A4208D105AE32002000E8
:10171000043B02A9FFF7EEFE002803D10020387039
:1017200009B0F0BD735D7F2BF8D10135072DF9D1DC
:10173000F379C22BF2D1337A222BEFD13822737A8C
:101740009343EDD0EAE70000034BC1600360034B15
:101750004360034B8360704745150008E31500089C
:101760007F1600080200313203001078002803D0F1
:10177000012033331B78584070470300F7B53233EC
:101780001B780400002B02D000252800FEBD0300BA
:1017900031331D78002DF7D0070033373E78002E07
:1017A000F3D1B9236A46694693710631B83B0732D3
:1017B000FFF7A0FE0028E7D0230030331E7001237E
:1017C00034343B702670E0E70300F7B53133040092
:1017D00018780D00002816D0220033321378002B21
:1017E00012D0260034363378002B12D16A4669466F
:1017F0000333937127686068023B07320631B847AC
:10180000002802D120860020FEBD0123E56233704E
:10181000F9E7E36ACD1A012DF5D90023137033706F
:10182000F2E770B50D000B69040098476B68012062
:10183000984700232377A3776369013363611123FA
:1018400023706B699847C830606070BDF0B587B091
:1018500001930CAB1B7806000293019B00240591B9
:101860000392072B4BD86B461B7A5BB2A34246DB35
:10187000029F103FFBB25F2B2CD80C21380000F0E8
:10188000F9FA0D00092925D80C21380000F06CFA6E
:10189000315C09291ED80522260001274A431A4B2C
:1018A0006D089B185B5D194A0493019B9D18ED0020
:1018B000292D0BD80621280000F056FA049BC340BE
:1018C0003B4203D03B00B3401C43E4B20136013538
:1018D000082EEDD1059B002B02D1039B002B0ED0CF
:1018E000019B072B0BD1029B3A3BDAB20A2A06D89E
:1018F000039A002A06D0064AD45CA400E4B2200071
:1019000007B0F0BD034AF7E7BE1E0008FFFFFF1F48
:10191000A81E0008B31E0008F8B50D000400190049
:10192000100006ABAF68079A1E78B847002804D1AC
:1019300029002000FFF775FFF8BD012326702377EB
:10194000FAE770B50C002C2200210500FFF794FA8D
:1019500023699847636801209847236800209847C7
:1019600000232B7070BD030002780020824202D158
:101970001B7F013058407047F0B58FB01D0014AB8D
:101980001B7802920393037F04000E00159F002B27
:1019900017D03800CB689847002805D0022805D119
:1019A00031002000FFF73DFF0FB0F0BD002323778B
:1019B0002378102B01D00B2B03D173699847C830C3
:1019C0006060029B2078002B00D03EE10028EBD025
:1019D0000D2800D92EE1022814D8012073689847F9
:1019E000736998471023C830606023706368FB1ADE
:1019F000DAD40120736898473368002098470023A1
:101A0000A37715E00E2323709C4B04AA13810F23A8
:101A1000019700930D3BA3E00120736898470120D4
:101A200033689847736998470123A060FA30606073
:101A30002370B9E76368FB1AB6D4023702236760E4
:101A4000F6E76368FB1AAFD40020736898477369A0
:101A50009847023003236060EAE76368FB1AA3D467
:101A60000423874A00930197153331002000FFF7C4
:101A700053FF99E7012363770023A21CD377E21C6D
:101A8000D3770523D4E700230F2106AA1370A31CE4
:101A9000DB7F503B5370E31CDB7F19401B09103385
:101AA000D3700623917000930197023BDDE740233A
:101AB000002504AA1372637F0293A31C03932133AE
:101AC0000493E31C05930020029B834210D16D48D0
:101AD000E168039B0918484241410598DB7FC07FBC
:101AE000E27F4019C0B20090C9B20498FFF7AEFE81
:101AF000013506AAA854102DE5D1072301970093BC
:101B00000A33B2E7E11CCB7FA21C1033DBB2CB77E8
:101B1000802B04D10020D37FC8770133D377D37FC4
:101B2000072BAED9637F002B01D0082380E7E36841
:101B3000E27F2361631CDA770123A3770B3377E716
:101B4000A368FB1AC82B00D52EE7092370E74E4B7C
:101B500004AA1381142393720A3B00930197073B55
:101B600006AA82E7494B04AA13810B23019700932D
:101B7000093BF5E76368FB1A00D515E70023A37757
:101B80000C3355E7A37F002B08D02369AB4205D166
:101B9000631CDB7F039A934200D105E7039BA21CE1
:101BA000E3770023E5606377D377E21CD3772300E4
:101BB00008222B33A5611A700D2339E723002B333C
:101BC0001D78013DEDB21D70A669002E02D10A21DB
:101BD000072D04D10A21300000F04CF9C9B2631975
:101BE0000433D97730000A2100F0BEF8A061002D3F
:101BF00000D146E7D8E6244B04AA13811023937240
:101C0000019706E76368FB1A00D5CDE6336800202C
:101C10009847FA239B00FF180023029A67609A42B4
:101C200000D105E7123303E76368FB1A00D5BBE672
:101C30000023FDE60E38042800D9B5E600F080F850
:101C4000E4FEDBFFD6FEE2FFF8FF122800D9ABE688
:101C500000F076F8E2FEF0FEF7FE03FF10FF19FF3A
:101C60002DFF58FF76FF7DFF88FF90FF98FFB4FFA0
:101C7000DAFED1FFCCFED8FFEAFFC04600AEFFFF80
:101C8000F01E0008011F0AFA008DFFFF00AFFFFFE2
:101C90000023C3800372704770B50E001100FA2252
:101CA0001D00194B0400F3189BB29200934204D814
:101CB0004B1E164A9BB2934203D90023E380237242
:101CC00070BD1348704300F04FF8124BC218124B0E
:101CD0009A42F2D80122114BA0802560E27198420D
:101CE00003D800232372A371EAE7237A002BE7D1FC
:101CF0000B498842F7D9A3790133DBB2A371022BD8
:101D0000DED92272DCE7C04618FCFFFFFD0F0000A1
:101D1000B80B0000C0F9FFFF02080000FD0B000037
:101D2000070C00000023C2799A4207D0027A9A4237
:101D300004D00268891A1E228A425B41180070474B
:101D400003B47146490840004900095E49008E44C9
:101D500003BC704703B47146490840004900095A62
:101D600049008E4403BC7047002243088B4274D361
:101D700003098B425FD3030A8B4244D3030B8B428C
:101D800028D3030C8B420DD3FF22090212BA030C95
:101D90008B4202D31212090265D0030B8B4219D376
:101DA00000E0090AC30B8B4201D3CB03C01A524196
:101DB000830B8B4201D38B03C01A5241430B8B42DE
:101DC00001D34B03C01A5241030B8B4201D30B03C7
:101DD000C01A5241C30A8B4201D3CB02C01A5241EE
:101DE000830A8B4201D38B02C01A5241430A8B42B1
:101DF00001D34B02C01A5241030A8B4201D30B029A
:101E0000C01A5241CDD2C3098B4201D3CB01C01AB3
:101E1000524183098B4201D38B01C01A52414309BD
:101E20008B4201D34B01C01A524103098B4201D3AB
:101E30000B01C01A5241C3088B4201D3CB00C01A18
:101E4000524183088B4201D38B00C01A5241430890
:101E50008B4201D34B00C01A5241411A00D20146B5
:101E6000524110467047FFE701B5002000F006F828
:101E700002BDC0460029F7D076E770477047C046DC
:101E800001B40248844601BC604700BF0100002045
:101E90001501000865010008550300082D0200081F
:101EA000E5010008090100081F1511001F051A00AF
:101EB0001F051A1F021F001E051E001B041B3E519A
:101EC00049453E00427F400042615149462141451B
:101ED0004B311814127F1027454545393C4A494972
:101EE0003001710905033649494936064949291E19
:101EF00000AE8D10A83FD300A1C8A640A48110D980
:091F0000F1D580DA122002DB3079
:101F0C0010210A4B0A4A9A600A4A9A601A680A43D4
:101F1C001A60BFF34F8FBFF36F8F30BF1A688A43BD
:101F2C001A60BFF34F8FBFF36F8F704700200240D2
:081F3C0037261504FDFCFBFA39
:04000005080000C12E
:00000001FF
