:020000040800F2
:1000000000500020C10000080101000801010008A3
:1000100000000000000000000000000000000000E0
:1000200000000000000000000000000001010008C6
:100030000000000000000000010100086D0600083B
:100040000101000801010008010100080101000888
:1000500001010008A50600080101000801010008CF
:100060000101000801010008010100080101000868
:100070000101000801010008010100080101000858
:100080000101000801010008010100080101000848
:100090000101000801010008010100080101000838
:1000A00001010008010100080D0600080101000817
:1000B0000101000801010008010100080101000818
:1000C00010B50A4A0A4B0B498B4209D300210A4B4F
:1000D0000A4A934207D300F01DFB00F065FA10BDF9
:1000E00001CA01C3F0E702C3F3E7C0469C2700083A
:1000F000000000203800002038000020B009002057
:1001000010B500F051FA10BD014B18687047C04699
:10011000C00000200222114B00281CD1104A506060
:100120001060032219680A431A60C02219689204F9
:100130000A431A60C022196812050A431A60C022D5
:10014000196892050A431A60C022196812060A4308
:100150001A60802292029A617047C04600040050E3
:10016000003800400322084B19689143023A0A43C1
:100170001A6042425041054A4042104080225202D9
:10018000801898617047C046000400500100FFFFCE
:10019000054B1878002805D0044B58680123400708
:1001A000C00F58407047C0469100002000700040CA
:1001B0000200FA2070B56025094C8000A3682B422C
:1001C00009D1A36813405E1EB3418B4205D00138AC
:1001D0000028F3D170BD0020FCE70120FAE7C046FB
:1001E0000030014000228021094B49015A601A6009
:1001F000084B99618021084BC901986A01439962B3
:10020000996A064801409962054B1A707047C046CA
:10021000003800400004005000100240FFBFFFFF04
:100220009800002010B5134B1A78012A0ED1124AFB
:100230001178124A1278914208D1022210498C6832
:10024000144203D08968090600D41A701A78022A69
:1002500003D1FFF7C7FF012010BD1B78012B05D18B
:10026000084B1B68C31A0020132BF5D9FFF7BAFF00
:100270000220F1E798000020990000209A00002059
:100280000038004094000020F7B51E00013B0091AB
:100290000192222B01D90020FEBDFFF779FF002833
:1002A000F9D08022FA23264C5200A2619B002169DA
:1002B00011421ED1013B002BF9D1ECE70121009B3B
:1002C000204F5B5D08003B70FFF772FF00281AD0DB
:1002D0003B78019A53550135AE420ED101210220DF
:1002E000FFF766FF00280FD000218020FFF760FF96
:1002F0000AE0802300255B04A36101210220FFF7AF
:1003000057FF0028DAD1002080235B00A361923BD5
:10031000C046013B002BFBD10028BDD10A4B186021
:10032000C023226813432360C02322689B00134329
:100330002360C02322681B0113432360ABE7C04640
:10034000000400500C30014000300140F8B54B1E55
:1003500005000C00160000201F2B52D8294F3B78B7
:10036000012B4ED0FFF73EFF274B284A1C7000237D
:1003700027491370E85CC8540133A342FAD3012023
:10038000387010708022234B52011E60224B234C88
:100390009A611968224A1140802252040A431A6065
:1003A0001A6820490A40802149050A431A605A6A9E
:1003B00022405A621C681C4A1440802212052243C3
:1003C00080241A605A6A2406120112095A621A68B5
:1003D00092009208224340241A602A782240554213
:1003E0006A41124D52422A408025ED0152199A610C
:1003F00099610F4A0F4B1A60A0225A601A68144381
:100400001C60F8BD980000209A0000209900002090
:100410009B0000209400002000040050FFFF0FFF0D
:10042000FFFFFFFCFFFFFFCFFFFFFFF300C0FF3F19
:1004300004C3000000380040802270B5344B5201E4
:10044000596A88B00A435A625A6A3249324C0A40A1
:100450005A62226823689B1A132B55D980222F4B8E
:1004600052009A61596800200A435A6019682C4A60
:100470001140802252020A431A601A6A29490A402E
:100480001A62C02219689143403A0A431A601A6AF4
:1004900025490A401A621968244A114080229200B4
:1004A0000A431A601A6A22490A401A621968214AE4
:1004B0001140802212010A431A60D5221E4B92007D
:1004C0001A60032305AA049304A90133FFF7DCFE95
:1004D000226823689B1A012B18D9184B184E0693D3
:1004E000002306A93000079301F038FB154D3100B9
:1004F000684601F081FB6C462B0023CC23C31A0015
:100500002368136008B070BD30BFA3E730BFE0E7D9
:1005100000100240FFEFFFFFC00000200004005069
:10052000FFFFFCFFFF0FFFFFFFFFF0FFFFFCFFFFE0
:10053000FFFF0FFFFFF3FFFF0030014089020008BB
:100540003C00002074000020A02310B51449154C75
:10055000DB05002810D1C0221868120102431A607E
:10056000DA682240DA60C0221868920102431A60F9
:10057000DA680A40DA6010BD8022D868D2002040D4
:100580000243DA601A6822401A608022D868520159
:1005900008400243DA601A680A401A60EBE7C04676
:1005A000FFCFFFFFFFF3FFFF13B572B60222144B1C
:1005B0000120D96A134C0A43DA62DB6AFFF7D2FDE5
:1005C000032322689A43023B1343236000230E4A0D
:1005D0000193019B93420DD90020FFF79BFD0C2353
:1005E00022689A43083B134323608023DB02A36104
:1005F00030BFFDE7C046019B01330193E9E7C046E8
:1006000000100240000400507F841E006022114B45
:100610009968114205D000225A600F4B03321A70BC
:1006200070479A689207FBD50C4A0D4910780978F3
:1006300088420AD21378D9B20133DBB21370094B66
:10064000094A5B5CDBB21370EAE780215A688A438F
:100650005A60E5E70038004098000020990000202B
:100660009A0000209B0000200C3800400A4A10B578
:10067000136801331360094B1B78002B0AD0A023A9
:100680000321DB051B6906480B40023912685940FB
:1006900000F09CFE10BDC046C0000020BB00002042
:1006A0002C01002004220321114B10B59A61114B3B
:1006B0005961114B1B78002B0AD0A023DB051B6965
:1006C0000E4A0B40023912680D48594000F07EFE78
:1006D0000C490B78DAB2002B09D10B4B0B48586050
:1006E00001209A60087007211960094B1A7010BD2B
:1006F0000004005000040140BB000020C0000020A6
:100700002C010020BC00002010E000E09F0F000042
:1007100088000020F0B591B072B607234F4F504EBD
:10072000FA6A0F2013430422FB62FB6AB26173680A
:1007300093437360302332689A43203B1343336002
:10074000396D484B1960039380233A6D1B041343A2
:10075000A0223B65D205D3688343D36013680C386D
:100760008343136013680930834313600023090136
:1007700002D51269013393433B4A0020137004925F
:100780003A4BBA6B01251343BB637A6B384BA024F9
:1007900013437B63374A7B6BF368E4051340F360D4
:1007A000FFF7B8FC0120FFF7DDFC0C2233680020C6
:1007B0009343083A134333603368013A9343C022AA
:1007C0002B43336073689200AB4373602368134319
:1007D0002360FFF7B9FEC02322681B021343236086
:1007E000C02322689B021A432260E26822490A4021
:1007F000E260F26821490A40F260C02231680A438F
:10080000C0213260326889000A433260C0223168F8
:1008100012010A43326032681949134333600A688F
:10082000184B1A408B231B0113430B600921164BF5
:100830001A688A431A603A68013915433D603A687C
:100840008A433A60114A04203968014201D000F01D
:10085000ABFC013A002AF6D1FFF7A6FE00100240D9
:10086000000400508C000020900000200040001088
:1008700001120000F0FFFF00FFFFFCFF3FF0FCFF54
:10088000007000404FE7FFFF00200240A0860100FB
:1008900000218A4203DA1202D20F01315140FF20B7
:1008A000C64AC1251170C64905928A68C54C824363
:1008B0008A6003222168AD0011432160A1681143C1
:1008C000A160E1681143E1606261BF4ABF4C5159C8
:1008D0000C408021C901214380245151BC4DE405C5
:1008E000296A0902090A0C432C6220211160C021E7
:1008F0003468890421433160C021346809052143EB
:100900003160C0213468890521433160C021C6258A
:100910003468090621433160AD005459AD49214086
:1009200080242404214351518021C9041160AA4D1F
:10093000AA4A01216A600022AA60A94A117007220E
:100940002A6062B66146DA69A64D1140A94203D118
:10095000002A01DA22423AD01040AA2837D103995E
:100960000968890133D4A049496849072FD49F49B0
:10097000120C0A409E490A439E498A4227D19E4A48
:100980009A615A68D20703D59C4ADA609C4ADA60B9
:100990005A68520703D59B4A5A619B4A5A610522FD
:1009A0005968114213D1994A994911600121994A14
:1009B0009869084202D0013A002AF9D19969964A09
:1009C000114200D1ECE0052259680A435A60012522
:1009D000924801F049FD924B0CAA03CB03C2914B04
:1009E000914A190010000393069201F07CFA7E4BA5
:1009F0008E4C5A68236852070193D20F0CAB6A40A1
:100A0000039906980093002301F08AFAFFF714FD7A
:100A1000A0230321DB0522681B690B406B40844D3A
:100A20008449280000F042FF049B1B78002B03D070
:100A30002800216800F0EDFE059B1B78002B02D1F9
:100A4000280000F026FF72B6A023DB0519690323F6
:100A50002268012419407848614000F0B7FC774BC8
:100A60001C7062B60824EFF3108572B672480EA9A6
:100A700000F0E0FC010085F310886D4D002806D0E1
:100A800028000EAA013C00F0A4FE002CEBD1634B21
:100A9000664A587DD97C6A4B002800D186E000293F
:100AA00000D086E01978002907D1FA2001311970A9
:100AB00013686449C0001B180B601368614A126810
:100AC0009B1ADB43DB0F00212A7B03918A4202D071
:100AD00001225A400392544B554C1A780333059225
:100AE000DB7F0793236C0893230069331B780993FA
:100AF000230068331B780A93534B1B780B93FFF743
:100B000047FB039B05000490002B1CD000224F4B99
:100B10001A704F4B1B78934215D10634E37F9342F2
:100B200000D12AE34B4B1B78934200D025E3FFF71B
:100B30002FFB002800D120E3FFF77EFC444B1B78FD
:100B4000002B00D119E3434B434C1B78002B06D1FB
:100B50001A4B1B78002B02D0354800F09AFE002D6E
:100B600003D0200001F056F80490304C3048226841
:100B7000049B304900F0BFFE334B039A2468187879
:100B8000002A6BD0082800D98CE001F0E1FC770145
:100B90009F01AF01BA01CA01D501EF018B006C00C2
:100BA00080225968D2020A435A60FEE7002900D128
:100BB000E9E200221A70002385E7C0469100002078
:100BC000000001400004014000E100E0FF00FFFFE1
:100BD00000ED00E0FFFF00FF10E000E09F0F0000CD
:100BE000BC000020AA000C0000700040707F0000D4
:100BF0000C8000007C800000022F0300EFCDAB8949
:100C000005040302C8D9EAFB272625240400F81F9F
:100C10007C80837F400D0300012F0300CC00002067
:100C2000A826000890260008F0000020C000002040
:100C30003C090020740000202C010020BB00002093
:100C40008800002084000020CB0000203900002014
:100C5000A80900206D0000203C000020082802D0D8
:100C6000C74A611D11600822C6481A7001F0A4FB32
:100C70000522C54B996811420CD0C14A1268A21ACC
:100C800008D48022796A92000A437A627A6ABF495C
:100C90000A407A629A68520700D4D8E01022996814
:100CA0000A439A60BA4BBB4ADB6A0CA80C93BA4B56
:100CB000197801234B408371D37C002B00D1D7E1FD
:100CC000927D0423032A00D0FB33437107230029BC
:100CD00026D0AF4C043B627C002A21D1200000F0DA
:100CE00090FD012300281BD1AC4AE16ADB18914238
:100CF00016D8AB4B1A780423002A11D1A54A917C4F
:100D0000002905D0117D002902D0D17C002907D00F
:100D1000927D0523022A03D00023042A00D1063342
:100D200000240CAA1371039BA34205D09D4B5C6861
:100D300001236407E40F5C409B4D9248296801F051
:100D400085FB2A680300019298480CAA00929849F2
:100D50002200049001F0E4F80122049B06921B7823
:100D6000059A8B4C93421DD1049B079A0333DB7F7A
:100D7000934217D1236C089A934213D1230069330D
:100D80001B78099A93420DD1230068331B780A9A85
:100D9000934207D1874B0B9A1B789B1A1A00531E5C
:100DA0009A4106920021227D637D07919A4205D1E6
:100DB000227F637FD31A5A425A4107927E4B059392
:100DC000039B002B00D05AE1200000F050FD0028CA
:100DD00000D154E1079B002B00D150E1049801F0B1
:100DE00094F8002800D14AE1724B1B78002B00D008
:100DF00045E1724B1978002900D041E101221A70B7
:100E0000059B31331B78002B00D12BE6059800F0B1
:100E10000CFF002800D025E6200000F03AFD8022DB
:100E2000674B52009A610399664A116003995160B9
:100E3000C02219680A431A60C022196892000A4346
:100E40001A60C022196812010A431A600AE60120DA
:100E500001219A6810400A4202D0022299681FE7D5
:100E60009A6859490A409A60584A594913680B4090
:100E70001360504B1870FFF767FB13E7414801F010
:100E80009BFA80220020404BD205D8601A610722CD
:100E900011215A614F4A053411704F4A4B49108055
:100EA000802292029A6280220868D20302430A607A
:100EB0008022996852050A439A600120FFF744FB9B
:100EC00001222F4B1C603B4B1A70EBE62C4A136837
:100ED000E31A00D5E6E680232B491B068868053413
:100EE00003438B601460334B0222EDE7264B9B6873
:100EF000002B00DAB6E0224B01341C6003222D4B9C
:100F0000E2E71F490B68E31A00D5CBE601201E4B30
:100F1000053418609A6802439A600422254B0C60DD
:100F2000D2E70122184B1B68134200D19AE0144B00
:100F300005221C601F4BC7E7114B1B68E31A00D545
:100F4000B0E6244B10221B78112B01D18022920293
:100F50000D4B05349A6214221A609968103A0A43BC
:100F60009A60074B06221C60124BADE7064B1A68CD
:100F7000D20633D5034801F01FFA07220D4BA3E731
:100F8000C4000020E400002000240140FFFDFFFF1A
:100F90003C090020CC00002091000020FEE0F50577
:100FA0008800002000700040C0000020F0000020F9
:100FB00090260008CB0000203C00002039000020D3
:100FC0000004005000300140FFFFFFEF0827014000
:100FD000FFFFBFFFCA000020C800002004211A68DC
:100FE0000A423FD01D6C794B1B78112B16D1784BE0
:100FF00078481988ADB22A00230089B2049001F024
:10100000DFF9049B0134DB795A1E934104225B42D1
:101010001D40714B1D806D4B1A7088E76E4B19880F
:1010200000291AD06A4B6D481B88ADB2584301F0B5
:1010300099FA68436A4B4000984211D8694901F017
:1010400091FAA023DB051A691B6992065B0681B23F
:10105000DB0F6548D20F01F011FA11220734DAE7ED
:101060006248EEE7624B1B68E41A00D51AE681E796
:10107000947CFF23002C00D127E6137C25E6002179
:10108000059B32331A7801235A40039B002B02D070
:101090000020584B1870002920D0002A1ED0524B37
:1010A000DB7C002B1AD1534B1878002816D1012273
:1010B0001A708023A021DB02B3612868C9050232BF
:1010C0002B681B1AC72B03D80B691340012B03D0C5
:1010D0000422494B9A61C5E430BFF1E772B6474B31
:1010E0004748185C00280CD14648474C185C1B5DEB
:1010F000984206D1454B03205C692300034004421B
:1011000003D062B60423B361ACE4002927D0002ADF
:1011100025D08022384DD202AA613D4A3D49136054
:101120003D4A3E48137080239B044B6003683C4A51
:10113000042413400360036802000120034313608A
:101140000B6923430B6101F09BFA32490B69A343FE
:101150000B61AC6162B6244801F086F982E4069B1B
:10116000002B00D07DE4049B0333DB7F002B00D0F9
:1011700077E4BFF34F8F30BF73E42A4B2A481968D6
:1011800000F07AFDDFE41B78002B00D095E412E537
:101190002649DA6926488C461140814201D1FFF781
:1011A00077FB0021FFF77BFB0C20F968214A1140F7
:1011B000214A0A43FA60214AF96801400429E7D02C
:1011C000013A002AF8D1FFF747FBC046CA000020C9
:1011D0007800F81FE4000020C8000020B80B0000D1
:1011E000FFFFFE0FFF0F0000CC000020FFFF0000FC
:1011F000C400002038000020000400502C01002012
:101200000A08000008080000090800000004014066
:1012100010E000E000ED00E0BC00002000700040A5
:10122000FDDFFFFFC00000203C000020FF000F009A
:10123000AA000C000C7FFFFF91800000A086010037
:1012400003008218934200D1704719700133F9E707
:10125000002310B59A4200D110BDCC5CC4540133B8
:10126000F8E70000F7B51F0008AB1B780E0015006B
:101270000021242201930400FFF7E2FF074B9E4266
:1012800000D9002601232373019B26606560256237
:10129000A5616775277563772377F7BDFFE0F505CF
:1012A0000123416002680649037383738A4203D8AD
:1012B000D21802601800704743730420FBE7C04651
:1012C000FEE0F50570B50400407D884201D06175EF
:1012D000A361207D0025884207D0A069181A07283D
:1012E00003D92175A94228D00135617F914201D0EF
:1012F00062772362217F914222D0216A591A0729FD
:101300001ED901212277002A00D10239012263600F
:101310002273914205D100226274227DE173A360A1
:1013200022740020012D0FD122682548A573824226
:1013300015D801322800226006E001256D42D4E76D
:10134000002108008D42E1D1E27B002A04D0227DF9
:10135000002A07D001222282013128D124E0042072
:101360006573F1E7227C002A11D1A568154E5D1B3B
:10137000B542EFD8FA26F600B54208D3657C002DB9
:1013800002D1013565746360013107D00FE001318E
:101390000DD1617C002907D0002A05D1226062733B
:1013A0000122A273921810430022E2732282626823
:1013B0009B1A054A934201D90023237370BDC0468E
:1013C000FEE0F505102700002F75000070B5134CE6
:1013D000134D435D0155043C0251124CDBB2065DD6
:1013E000002E05D1104E0133865DDBB29E420BD13B
:1013F00001230E4A0355815A0D4B994203D0835A5B
:1014000001339BB2835270BD445DE4000419217125
:10141000415DC9000A504355F5E7C0460408000085
:10142000080800000A080000090800000C08000075
:10143000FFFF000070B5144D0300465D134C144AC5
:10144000F0B2002E0DD01348185C08718020000106
:1014500018580860195D0220C9B2995400225A55E3
:1014600070BD9D5C1C5DA542FAD0985CC000181848
:1014700000790871985CC000C0580860995C012030
:101480000131C9B29954EBE70A08000008080000CE
:101490000908000004080000F7B505000C0016005C
:1014A000022A16D1012142680180521842601A793D
:1014B0001B6810009207D20F627722770022084043
:1014C00060752075A3612362E273228221736360D9
:1014D000F7BD012AFCD18A7B0F6800924A7B20006D
:1014E000019219791B688A07D20F3140FFF7EAFE93
:1014F0002B78002BECD0800704D56B686E7001331D
:101500006B60E5E7009B2760A373019B6373DFE7D4
:101510000122F0B5FF270F2689000E4D41185242D7
:10152000814201D1D043F0BD036800249C4663464C
:10153000E3403B4053401A0933409B005B59083459
:101540005A4013093240920052595A40202CEED191
:101550000430E5E7B0260008114B026870B50400BE
:1015600000259A421AD183680E4A934216D8C2685F
:10157000012A13D842680169D24391420ED1DB435C
:1015800042699A420AD106218669FFF7C1FF864265
:1015900004D1054BE569ED186B425D41280070BD33
:1015A00001344451FFE0F505CCABB2BCF0B58FB0CF
:1015B00003914022002104000126FFF741FE5F2332
:1015C0000027E360A672FB0001930833049706AD81
:1015D000013705930296039B03982A001B68019923
:1015E000C068984700281ED1E67228600290019BCF
:1015F000059A0133019304359342ECD1029B002BF1
:1016000005D006AD2800FFF7A7FF002811D1602FF5
:10161000D9D1E37A002B02D1637A002B01D10123C7
:1016200023720FB0F0BD2B68002BE0D00023A37213
:10163000DDE7627A6B68002A15D061685A1A8B421E
:101640000BD1AA6823689A4205D1EB685A1E9341D0
:10165000227A9342DBD0E672D9E7802109068A42DA
:10166000F9D0002AD3DD6360089B049A2360099BAC
:10167000E2605A1E934166722372C8E770B51E007D
:1016800003003C331D780400002D20D1114B9942FA
:101690001BD8114B016283614368C9430133C361A5
:1016A000DB4342628362C16206211830FFF730FFDC
:1016B0000A4B2063E06860216363013000F0D8FFCB
:1016C000656101352161A663E563280070BD0025D1
:1016D000FBE7C046FFE0F5050134445134544D4367
:1016E00013000200F0B53C3285B00192127804007C
:1016F0000D00002A11D027003D373A78C868002A2B
:1017000050D08A6819009047002806D0012806D0DA
:101710000023A3873F340133237005B0F0BD636914
:101720000726002B00D05E1E21692B68C900E868DF
:10173000891903AA98470028EAD0002263699342D6
:1017400002D00636B600325903999142E0D1002604
:1017500001333E706361092BDFD121692B68C90019
:10176000E868891903AA98470028D1D02300B2005D
:1017700018339A58039B9A42CAD10136082EECD1ED
:10178000236A01992360636A5A1E93412372E369B5
:10179000002263602369A272E360012363720A700E
:1017A0003E34B9E762690726002A00D0561E216937
:1017B0006D68C9008919002A02D00636B600325970
:1017C000A8470123002802D1A0873F34A4E73B703B
:1017D000A3E710B50400130024300A002100FFF72E
:1017E0005BFE23006C331A78002A09D0A21DD27F39
:1017F000002A05D0A16A226F914201D000221A70FE
:1018000010BD421D0300D07F002801D16C33187831
:10181000704770B504000D00FFF7F3FF002804D1F6
:1018200029002000FFF73CFD70BD01236560237394
:10183000FAE702000300002068321278824213D1D6
:101840001A003532127882420ED0D96A1A68914253
:101850000AD119005A1D34310978D27F914203D13F
:101860000633DB7F013058400123184070470300E6
:1018700010B568331A78002304009A4206D1FFF7A6
:10188000D8FF0123002801D16C34237801201840AF
:1018900010BD02006C321378002B06D10133137097
:1018A0008384836A0133836203677047F7B504005A
:1018B0000F001600002174221D00FFF7C1FC20005C
:1018C00039002C30FFF772FE01232B40AD07ED0FDE
:1018D000009532002000E16AFFF7C4FC2200343298
:1018E0001278631DDA7732331B78002B02D0200088
:1018F000FFF7CFFFF7BDF8B50700050068371E00FA
:101900003B7804002C35002B02D02800FFF7E8FEBE
:1019100023006B331A78002A04D0002220001A70AA
:10192000FFF7B7FF23006A331A78002A15D0002288
:101930001A70A21DD27FE36A002A09D0616EA26AE2
:10194000914205D1002B03D12A7A002A00D1A38429
:1019500022689A4201D10023A3733B78002B20D147
:1019600023006C331B78002B1BD1002E19D0631D74
:10197000DA7F002A03D00122A31DDB7F5A406B7A55
:101980002168002B09D0E36A8B4206D12B7A93425F
:1019900003D1A31DDB7F002B03D02800A36AFFF730
:1019A0006DFEF8BD70B504003130007800280AD013
:1019B000200033300078002805D125686068A847EA
:1019C000002801D12086002070BD37B505236A4666
:1019D00001AD13800C002A006946033BFFF7E2FFCC
:1019E000002806D07123687820701840434258417F
:1019F000C0B23EBDC023F0B595B004000D00019209
:101A00009B00994221D2030032331B78002B1CD15A
:101A1000030030331B78CE08002B02D0836AB34218
:101A20002ED003231F22002103A80293FFF708FCF6
:101A3000730102AF1A0A7A70BB70390023232000A9
:101A40000BAAFFF7AFFF002802D1002015B0F0BDB0
:101A5000210020000BAB083128301A795F7912027F
:101A60003F043A43DF7804333A439F783F063A43D2
:101A700004C18842F1D1230001223033A6621A70DA
:101A800007231D400235AD002B59019A0120136038
:101A9000DCE7C023F0B59B0004000E00150089B000
:101AA000994202D3002009B0F0BD03003233019304
:101AB0001B78002BF6D1062202A94A710200CF1D25
:101AC000303239001370FFF780FF0028EAD00C2372
:101AD0003A781A42E6D102AA02A920000B3B06324C
:101AE0000531FFF75FFF0028DCD039002000FFF749
:101AF0006CFF0028D6D002233A781A42D2D09E40FA
:101B000004A90B70330A4B702B0A0B712B0CCD7090
:101B10004B712D0E0723200006AA8E708D71FFF7E2
:101B200041FF0028BED00123019A1370BBE70300D8
:101B300013B532331A78002A01D1022016BD0022D3
:101B40001A706B46DC1D2100FFF73FFF0028F4D020
:101B50000E2322781A42F0D10120EFE7F0B50400FD
:101B600089B038220D000021FFF76AFB230027000F
:101B700006CD06C3012504236A463137537100217F
:101B80009B3306223D7003A80293FFF759FB6A4678
:101B900069462B00200006320531FFF703FF0028BD
:101BA00014D06B46DE1D31002000FFF70EFF002829
:101BB0000CD00E2332781A4208D105AE3200200034
:101BC000043B02A9FFF7EEFE002803D10020387085
:101BD00009B0F0BD735D7F2BF8D10135072DF9D128
:101BE000F379C22BF2D1337A222BEFD13822737AD8
:101BF0009343EDD0EAE70000034BC1600360034B61
:101C00004360034B83607047F5190008931A00087E
:101C10002F1B00080200313203001078002803D087
:101C2000012033331B78584070470300F7B5323337
:101C30001B780400002B02D000252800FEBD030005
:101C400031331D78002DF7D0070033373E78002E52
:101C5000F3D1B9236A46694693710631B83B07321E
:101C6000FFF7A0FE0028E7D0230030331E700123C9
:101C700034343B702670E0E70300F7B531330400DD
:101C800018780D00002816D0220033321378002B6C
:101C900012D0260034363378002B12D16A466946BA
:101CA0000333937127686068023B07320631B847F7
:101CB000002802D120860020FEBD0123E56233709A
:101CC000F9E7E36ACD1A012DF5D9002313703370BB
:101CD000F2E70000F8B504680E4B06000F009C42C6
:101CE00000D91C000825B3790A21002B08D1002C4B
:101CF00001D1082D04D10A21200000F0B9FCC9B29D
:101D0000013D200079550A2100F02CFC0400002D33
:101D1000E9D1F8BDFFE0F50570B50D000B690400D1
:101D200098476B68012098470023621D6384D3772E
:101D3000A3680133A3600E2323706B699847783042
:101D4000606070BDF8B50E00040019001000B568A1
:101D500006AB079A1F78A847051E05D13100200061
:101D6000FFF7DAFF2800F8BD0122E31CDA772770BD
:101D7000F8E70000F0B585B002920AAA04001278D4
:101D800000200191072B20D851B281421DDB1100A8
:101D90001039CDB25F2D04D8834202D00500072B45
:101DA00017D10199013906294AD8072B48D11300C8
:101DB0003A3B0A2B09D80B210198324B41435B185F
:101DC0009B183A3B18788000C0B205B0F0BD0C39C2
:101DD00001350B29FBD800200929E2D8665D092EC0
:101DE000DFD80525012775430600274C49086419EB
:101DF000615CFC1A0391E4000399F14039421AD066
:101E0000E543ED172540A11D8C460095082901DD0D
:101E100008218C46009D002165450BDA6546390096
:101E2000A94001398C463900009DA9404D426146C8
:101E30002940C9B2084301360634072EDCD1B0E789
:101E4000002BC2D10299FF291AD011006A39CCB2F5
:101E5000132C15D87E33002912D0112910D0123935
:101E6000663B01290CD910312A330E2908D8D243F8
:101E7000920705D0029A89083C33914200D33C3B3B
:101E80001843A2E7F02600084827000810B5010013
:101E9000008C002819D110BD0133DBB20400DC40F6
:101EA0001442F9D09A4090430884072B10D80C2292
:101EB00001205A431032D2B2CC1DE3770B002831F7
:101EC0000833D87701200A70E5E700230122E5E70F
:101ED000082B05D000200200092BEDD16A32EBE778
:101EE00007203A22E8E770B50C003C2200210500EB
:101EF000FFF7A6F92369984763680120984723688C
:101F00000020984700232B7070BD0300027800204A
:101F1000824203D10333DB7F013058407047000019
:101F2000F0B58FB00393C31C02920493DB7F0400CF
:101F30000E00149D159F002B16D03800CB689847D3
:101F4000002805D0022805D131002000FFF7E4FE6B
:101F50000FB0F0BD0023E21CD37723780D2B03D103
:101F60007369984778306060039A2378002A23D0F9
:101F70000021A21DD177029A002A03D0A21DD27F90
:101F8000002A04D0013B092B1CD90023029320789E
:101F90000F28DDD800F0DCFA2600360040004C00A7
:101FA00070008A00DB002201370140016201BE019E
:101FB000C601DA01EA01FC01DA1E072ADBD8012298
:101FC000A31DDA77631DDB7F002B02D00B23237068
:101FD000DBE70120736898477369984778300D23D1
:101FE0006060F4E7029B002BB2D001207368984731
:101FF0000120336898477369984701233C3060603B
:102000002370A5E76368FB1AA2D4039B002B9FD023
:10201000023702236760F3E76368FB1A98D4002055
:102020007368984773699847023003236060E7E755
:102030006368FB1A00D58BE70022231DDA772A009C
:102040000C3303CA03C3210028002931FFF742FEE5
:102050000323310000932000D24A01971633FFF783
:1020600071FE002800D173E78023DB002000238469
:10207000FFF70CFF0423C3E7002306AA1370230015
:102080000833DB7F0F21503B5370230028331B782C
:1020900019401B091033D3700523917000930197E9
:1020A000013B31002000FFF74DFE51E7E31DDA7FD1
:1020B000072A2ED80C2353430A221033DBB2210007
:1020C000283109789B185B1A039102931F2B01D9C1
:1020D0001F230293402304AA137223000025083310
:1020E000049321330593029B9D421FD10622EDB23A
:1020F0006B1C009231002000DBB2019706AAFFF7AB
:1021000021FE002800D123E728342378ED1825701C
:102110001EE7082A04D0092A05D16A230B32CEE72C
:102120000B223A23CBE780220023C8E7039B627D82
:102130005819049BC0B2DB7F217D00900598FFF702
:1021400019FE082204AB01359B185855CBE7E31D57
:10215000DA7F072A32D80C2353430A221033DBB22A
:102160002500210028352E789A180831964203DB85
:10217000CA7F2B700132CA77CB7F834200D879E7C0
:102180002000FFF783FE002800D073E72300220021
:102190001833103203CA03C321002000082229315A
:1021A0003130FFF755F80122231DDA77631DDA7FFE
:1021B0000723002A00D123E7023321E7082A05D0AC
:1021C000092A07D100206A230B32C9E707200B2216
:1021D0003A23C5E7072080220023C1E7724B04AAF7
:1021E0001381142393720C3B00933100200001975C
:1021F000053B06AAFFF7A6FD002800D1A8E60123AB
:102200000534E377A4E6694B04AA138109230197F7
:102210000093073B06AA44E7231DDB7F002B0CD06D
:10222000A2692B689A4208D1A28BAB889A4204D14A
:10223000A27FAB799A4200D18AE623002A001033AC
:1022400003CA03C35A4A2B68934200D91300E360C0
:102250002300082239331A700A23D1E622003932CA
:102260001378013BDDB21570A37DE668002B08D121
:10227000002E01D1072D04D10A21300000F0F8F919
:10228000C8B26319293318700A21300000F06AF9C6
:10229000E060002D00D05BE6261DF37F002B36D0DA
:1022A00021002B002A00293101350F78087A874256
:1022B00003D02800904003439BB201320131082A29
:1022C000F3D1217D227F914202D08022520013431C
:1022D000617D627F914202D08022920013432000F0
:1022E0002384FFF7D3FD002800D0C3E6230022009B
:1022F0001833103203CA03C32100200008222931F9
:102300003130FEF7A5FF0123F377083378E6802309
:10231000DB00E4E7274B04AA13810C230197009309
:102320000A3B77E7204B04AA138110239372033BE7
:1023300000933100200001970A3B06AAFFF702FD37
:10234000002800D104E6002305345AE76368FB1A2D
:1023500000D5FDE501207368984733680020984751
:102360000023221DD377621DD37749E66368FB1AE9
:1023700000D5EDE5336800209847FA239B00FF184D
:102380000023029A67609A4200D139E60F3337E69C
:10239000029B002B03D06368FB1A00D5D8E500230D
:1023A0002EE6C0467A270008008DFFFF00AFFFFF32
:1023B000FFE0F50500AEFFFF0023C3800372704706
:1023C00070B50E001100FA221D00194B0400F3181D
:1023D0009BB29200934204D84B1E164A9BB2934282
:1023E00003D90023E380237270BD1348704300F0CB
:1023F000B9F8124BC218124B9A42F2D80122114B73
:10240000A0802560E271984203D800232372A37153
:10241000EAE7237A002BE7D10B498842F7D9A37961
:102420000133DBB2A371022BDED92272DCE7C04696
:1024300018FCFFFFFD0F0000B80B0000C0F9FFFF04
:1024400002080000FD0B0000070C00000023C27909
:102450009A4207D0027A9A4204D00268891A1E2250
:102460008A425B411800704710B518220021040011
:10247000FEF7E6FE0023A37510BD000070B5314DD8
:102480000124A9420ED8002A10D1C47404238375F4
:102490000023838243748381036070BDC47402335C
:1024A000DBB2F4E7C474002AF9D1EFE7002BF5D0D2
:1024B00000238475C374447B037B6200042B38D1F2
:1024C0008518AE880568AD1B0560032582189180CC
:1024D000026801348A182C4002604473AB42DCD994
:1024E00000259208837C92B2C281AB4200D0057C69
:1024F0000023154E5C00345B9D4201D91E3CA4B202
:10250000A2421AD30133042BF4D101220374827442
:102510005A42534103750D4B994210D8437CFF2B0F
:1025200004D00133DBB24374052BB6D901234375C4
:10253000B3E70133DBB20373C7E7DBB2E5E70023A0
:102540004374AAE7D810000094270008150D000076
:1025500003B47146490840004900095A49008E44B5
:1025600003BC7047002243088B4274D303098B429B
:102570005FD3030A8B4244D3030B8B4228D3030C53
:102580008B420DD3FF22090212BA030C8B4202D3F5
:102590001212090265D0030B8B4219D300E0090A1D
:1025A000C30B8B4201D3CB03C01A5241830B8B4226
:1025B00001D38B03C01A5241430B8B4201D34B030F
:1025C000C01A5241030B8B4201D30B03C01A524174
:1025D000C30A8B4201D3CB02C01A5241830A8B42F9
:1025E00001D38B02C01A5241430A8B4201D34B02E2
:1025F000C01A5241030A8B4201D30B02C01A524146
:10260000CDD2C3098B4201D3CB01C01A52418309F9
:102610008B4201D38B01C01A524143098B4201D333
:102620004B01C01A524103098B4201D30B01C01A5E
:102630005241C3088B4201D3CB00C01A52418308D8
:102640008B4201D38B00C01A524143088B4201D305
:102650004B00C01A5241411A00D201465241104665
:102660007047FFE701B5002000F006F802BDC04644
:102670000029F7D076E770477047C0460000000099
:1026800001B40248844601BC604700BF010000203D
:1026900015010008650100084D0300082502000827
:1026A000E5010008090100080000000000FF01002A
:1026B000000000006410B71DC8206E3BAC30D92666
:1026C0009041DC76F4516B6B5861B24D3C71055012
:1026D0002083B8ED44930FF0E8A3D6D68CB361CB3A
:1026E000B0C2649BD4D2D38678E20AA01CF2BDBDEE
:1026F00000000000000000000000001F1511001F76
:10270000051A001F051A1F021F001E051E001B04CC
:102710001B1F051A0017151D00011F011F101000B7
:102720000E110E000000000E1111001F041F000EFC
:10273000111D1F150A001E051E00011F010E110E9E
:10274000001F050200011F013E5149453E00427F26
:10275000400042615149462141454B311814127FD6
:102760001027454545393C4A49493001710905035F
:102770003649494936064949291E00AE8D10A83F01
:10278000D300A1C8A640A48110D9F1D580DA1220C7
:0C27900002DB3000DE0D740ED80E6E0F60
:10279C0010210A4B0A4A9A600A4A9A601A680A433C
:1027AC001A60BFF34F8FBFF36F8F30BF1A688A4325
:1027BC001A60BFF34F8FBFF36F8F7047002002403A
:0827CC0037261504FDFCFBFAA1
:04000005080000C12E
:00000001FF
