:020000040800F2
:1000000000500020ED0000087D0100087D0100087F
:1000100000000000000000000000000000000000E0
:100020000000000000000000000000007D0100084A
:1000300000000000000000007D0100081D0700080E
:100040007D0100087D0100087D0100087D01000898
:100050007D010008A90700087D0100087D01000856
:100060007D0100087D0100087D0100087D01000878
:100070007D0100087D0100087D0100087D01000868
:100080007D0100087D0100087D0100087D01000858
:100090007D0100087D0100087D0100087D01000848
:1000A0007D0100087D010008BD0600087D010008F3
:1000B0007D0100087D0100087D0100087D01000828
:1000C000074B01209B68002B09D1064B9B6B1B0241
:1000D00005D4054B186803231840431E9841704708
:1000E00000ED00E0001002400000014010B572B6C3
:1000F0000223194CE26A13430422E362E36A174BBA
:100100009A6119682C329143203A0A431A60FFF72A
:10011000D7FF002812D10C23E2681A420ED1104AF0
:10012000104B11498B4212D30021104B104A9342BD
:1001300010D300F073FB00F08FFA10BDBFF34F8FA8
:100140000C4B0D4ADA60BFF34F8FC046FDE701CA82
:1001500001C3E7E702C3EAE70010024000040050D1
:10016000642900080000002038000020380000202A
:10017000B809002000ED00E00400FA0510B5FFF713
:100180009FFF002808D0BFF34F8F054B054ADA6068
:10019000BFF34F8FC046FDE700F05EFA10BDC046CA
:1001A00000ED00E00400FA05014B18687047C046F6
:1001B000C8000020A02303220120DB051B69134097
:1001C000584070470222114B00281CD1104A506041
:1001D0001060032219680A431A60C0221968920449
:1001E0000A431A60C022196812050A431A60C02225
:1001F000196892050A431A60C022196812060A4358
:100200001A60802292029A617047C0460004005032
:10021000003800400322084B19689143023A0A4310
:100220001A6042425041054A404210408022520228
:10023000801898617047C046000400500100FFFF1D
:10024000054B1878002805D0044B58680123400757
:10025000C00F58407047C046910000200070004019
:100260000200FA2070B56025094C8000A3682B427B
:1002700009D1A36813405E1EB3418B4205D00138FB
:100280000028F3D170BD0020FCE70120FAE7C0464A
:100290000030014000228021094B49015A601A6058
:1002A000084B99618021084BC901986A0143996202
:1002B000996A064801409962054B1A707047C0461A
:1002C000003800400004005000100240FFBFFFFF54
:1002D0009800002010B5134B1A78012A0ED1124A4B
:1002E0001178124A1278914208D1022210498C6882
:1002F000144203D08968090600D41A701A78022AB9
:1003000003D1FFF7C7FF012010BD1B78012B05D1DA
:10031000084B1B68C31A0020132BF5D9FFF7BAFF4F
:100320000220F1E798000020990000209A000020A8
:100330000038004094000020F7B51E00013B0091FA
:100340000192222B01D90020FEBDFFF779FF002882
:10035000F9D08022FA23264C5200A2619B00216929
:1003600011421ED1013B002BF9D1ECE70121009B8A
:10037000204F5B5D08003B70FFF772FF00281AD02A
:100380003B78019A53550135AE420ED1012102202E
:10039000FFF766FF00280FD000218020FFF760FFE5
:1003A0000AE0802300255B04A36101210220FFF7FE
:1003B00057FF0028DAD1002080235B00A361923B25
:1003C000C046013B002BFBD10028BDD10A4B186071
:1003D000C023226813432360C02322689B00134379
:1003E0002360C02322681B0113432360ABE7C04690
:1003F000000400500C30014000300140F8B54B1EA5
:1004000005000C00160000201F2B52D8294F3B7806
:10041000012B4ED0FFF73EFF274B284A1C700023CC
:1004200027491370E85CC8540133A342FAD3012072
:10043000387010708022234B52011E60224B234CD7
:100440009A611968224A1140802252040A431A60B4
:100450001A6820490A40802149050A431A605A6AED
:1004600022405A621C681C4A144080221205224312
:1004700080241A605A6A2406120112095A621A6804
:1004800092009208224340241A602A782240554262
:100490006A41124D52422A408025ED0152199A615B
:1004A00099610F4A0F4B1A60A0225A601A681443D0
:1004B0001C60F8BD980000209A00002099000020E0
:1004C0009B0000209400002000040050FFFF0FFF5D
:1004D000FFFFFFFCFFFFFFCFFFFFFFF300C0FF3F69
:1004E00004C3000000380040802270B5344B520134
:1004F000596A88B00A435A625A6A3249324C0A40F1
:100500005A62226823689B1A132B55D980222F4BDD
:1005100052009A61596800200A435A6019682C4AAF
:100520001140802252020A431A601A6A29490A407D
:100530001A62C02219689143403A0A431A601A6A43
:1005400025490A401A621968244A11408022920003
:100550000A431A601A6A22490A401A621968214A33
:100560001140802212010A431A60D5221E4B9200CC
:100570001A60032305AA049304A90133FFF7DCFEE4
:10058000226823689B1A012B18D9184B184E069322
:10059000002306A93000079301F0C6FB154D31007A
:1005A000684601F00FFC6C462B0023CC23C31A00D5
:1005B0002368136008B070BD30BFA3E730BFE0E729
:1005C00000100240FFEFFFFFC800002000040050B1
:1005D000FFFFFCFFFF0FFFFFFFFFF0FFFFFCFFFF30
:1005E000FFFF0FFFFFF3FFFF00300140390300085A
:1005F0003C00002074000020A02310B51449154CC5
:10060000DB05002810D1C0221868120102431A60CD
:10061000DA682240DA60C0221868920102431A6048
:10062000DA680A40DA6010BD8022D868D200204023
:100630000243DA601A6822401A608022D8685201A8
:1006400008400243DA601A680A401A60EBE7C046C5
:10065000FFCFFFFFFFF3FFFF13B572B60222144B6B
:100660000120D96A134C0A43DA62DB6AFFF7D2FD34
:10067000032322689A43023B1343236000230E4A5C
:100680000193019B93420DD90020FFF79BFD0C23A2
:1006900022689A43083B134323608023DB02A36153
:1006A00030BFFDE7C046019B01330193E9E7C04637
:1006B00000100240000400507F841E006022114B95
:1006C0009968114205D000225A600F4B03321A700C
:1006D00070479A689207FBD50C4A0D491078097843
:1006E00088420AD21378D9B20133DBB21370094BB6
:1006F000094A5B5CDBB21370EAE780215A688A43DF
:100700005A60E5E70038004098000020990000207A
:100710009A0000209B0000200C38004070B51B4C54
:100720002368013323601A4B1B78DDB2002B08D0FD
:10073000FFF740FD174B01001800226800F02CFF66
:1007400070BD154B1B78002BFAD0FFF733FD134A11
:1007500001001078124BC6B2884209D0117022688D
:1007600010480932026001221A7022680948E5E740
:100770001A78002AE4D00B4922680968521ADFD49B
:100780001D70310022680348D8E7C046C800002029
:10079000C300002034010020C2000020C00000205F
:1007A000C1000020BC00002010B5FFF703FD0028A9
:1007B00002D00422104B9A610322104B5A61104B55
:1007C0001B78002B08D0FFF7F5FC0E4B01001A68D0
:1007D0000D4B180000F0E0FE0C490B78DAB2002B4C
:1007E00009D10B4B0B48586001209A600870072113
:1007F0001960094B1A7010BD00040050000401403C
:10080000C3000020C800002034010020C4000020E4
:1008100010E000E09F0F000088000020F0B593B0CA
:1008200072B607235B4F5C4EFA6A0F201343042213
:10083000FB62FB6AB2617368934373603023326872
:100840009A43203B134333603A6D544B1A60039331
:100850008023396D1B040B433B65A023DB05D9685E
:100860008143D96019680C388143196019680930CF
:100870008143196000210C910C99072900D882E06E
:10088000196900230D930D9B072B7FD900231201BB
:1008900007D50122114204D1A023DB051B699A432D
:1008A000130001253E4A0020137004923D4BBA6BA1
:1008B000A0241343BB637A6B3B4BE40513437B6378
:1008C0003A4A7B6BF3681340F360FFF77BFC280028
:1008D000FFF7A0FC0C22336800209343083A13432F
:1008E00033603368013A9343C0222B43336073680B
:1008F0009200AB437360236813432360FFF77CFED1
:10090000C02322681B0213432360C02322689B027A
:100910001A432260E26826490A40E260F2682549EB
:100920000A40F260C02231680A43C0213260326856
:1009300089000A433260C022316812010A433260E2
:1009400032681D49134333600A681C4B1A408B23DD
:100950001B0113430B600921194B1A688A431A6063
:100960003A68013915433D603A688A433A60154A4E
:1009700004203968014201D000F0F2FC013A002A5B
:10098000F6D1FFF769FE0C99013174E70D9B013335
:1009900078E7C04600100240000400508C000020A0
:1009A000900000200040001001120000F0FFFF0046
:1009B000FFFFFCFF3FF0FCFF007000404FE7FFFF30
:1009C00000200240A086010000218A4203DA1202C0
:1009D000D20F01315140FF20D14AC1251170D149B8
:1009E00005928A68D04C82438A6003222168AD0058
:1009F00011432160A1681143A160E1681143E160E6
:100A00006261CA4ACA4C51590C408021C901214334
:100A100080245151C74DE405296A0902090A0C4393
:100A20002C6220211160C021346889042143316087
:100A3000C0213468090521433160C021346889052B
:100A400021433160C021C625346809062143316045
:100A5000AD005459B8492140802424042143515108
:100A60008021C9041160B54DB54A01216A60002298
:100A7000AA60B44A117007222A6062B66146DA6938
:100A8000B14D1140A94203D1002A01DA224251D0CE
:100A90001040AA284ED10399096889014AD4082533
:100AA000AA490C68AA484068284203D10868001B7C
:100AB0000428F7D90C680868001B012800D82CE12D
:100AC000A3484168090735D54168490732D4A1498F
:100AD000120C0A40A0490A43A0498A422AD1A04ADE
:100AE000A0491068884225D09F4898615868C0077F
:100AF00003D59E48D8609E48D8605868400703D503
:100B00009C4858619C48586105205C68044211D19A
:100B100011600121994A9869084202D0013A002ADD
:100B2000F9D19969964A114200D14DE105225968DF
:100B30000A435A6093480EAD01F07CFD2A00924BA7
:100B4000924C03CB03C2924B2000190003930694EE
:100B500001F0AFFA01217E4B7C4C5A6823685207A2
:100B6000D20F4A400193039900230698009501F0A3
:100B7000BDFA72B6FFF71EFB0121236806900393AE
:100B8000844B1870844B0793197062B6FFF7ACFC66
:100B9000824D069B28008249039A00F06DFF049B5A
:100BA0001B78002B03D02800039900F018FF059B49
:100BB0001B78002B02D1280000F051FF72B60023F1
:100BC000079A1370FFF7F6FA764B010022681800B7
:100BD00000F0E2FC0122744B1A7062B60824EFF3B5
:100BE000108572B66F4810A900F00AFD010085F368
:100BF00010886A4D002806D0280010AA013C00F099
:100C0000CEFE002CEBD15F4B504A587DD97C674B10
:100C1000002800D1DEE0002900D0DEE019780029AC
:100C200007D1FA200131197013686149C0001B18FF
:100C30000B6013685E4A12689B1ADB43DB0F2A7B4A
:100C40000392002A04D0002B00D0CAE00433B36121
:100C50004E4B524C1A7803330592DB7F0793236C7B
:100C60000893230069331B780993230068331B78AA
:100C70000A93504B1B780B93FFF7E2FA039B050096
:100C80000490002B1CD000224B4B1A704B4B1B784E
:100C9000934215D10634E37F934200D149E3484B98
:100CA0001B78934200D044E3FFF7CAFA002800D132
:100CB0003FE3FFF719FC414B1B78002B00D138E3D1
:100CC0003F4B404C1B78002B06D1154B1B78002B5B
:100CD00002D0324800F0C3FE002D03D0200001F006
:100CE0007FF80490194C2D482268049B2C4900F091
:100CF000E8FE304B039A24681878002A74D008283C
:100D000000D995E001F00AFD8501B301D001DB01B6
:100D1000EB01F60142029400750030BFCBE6C046FD
:100D200091000020000001400004014000E100E0CB
:100D3000FF00FFFF00ED00E0FFFF00FF10E000E01C
:100D40009F0F0000C4000020AA000C00C800002073
:100D500000700040707F00000C8000007C8000006C
:100D60000400F81F7C80837F022F0300EFCDAB8946
:100D700005040302C8D9EAFB27262524400D0300F9
:100D8000012F0300D400002070280008F800002084
:100D900058280008C0000020C2000020440900209C
:100DA0007400002034010020C300002088000020CF
:100DB00084000020D300002039000020B00900206A
:100DC0006D0000203C00002080225968D2020A43B6
:100DD0005A60FEE7002900D1B1E200221A70002318
:100DE0002DE70023039333E7082802D0CE4A611D84
:100DF00011600822CD481A7001F0C4FB0522CC4BCB
:100E0000996811420CD0C84A1268A21A08D48022EC
:100E1000796A92000A437A627A6AC6490A407A621B
:100E20009A68520700D4D8E0102299680A439A6061
:100E3000C14BC24ADB6A0EA80E93C14B197801233D
:100E40004B408371D37C002B00D1EEE1927D0423D3
:100E5000032A00D0FB3343710723002926D0B64C68
:100E6000043B627C002A21D1200000F0B0FD012368
:100E700000281BD1B34AE16ADB18914216D8B24B65
:100E80001A780423002A11D1AC4A917C002905D09C
:100E9000117D002902D0D17C002907D0927D052345
:100EA000022A03D00023042A00D1063300240EAA0C
:100EB0001371039BA34205D0A44B5C680123640714
:100EC000E40F5C40A24D9948296801F0A5FB2A680F
:100ED000030001929F480EAA00929F4922000490AD
:100EE00001F004F90122049B06921B78059A924CAA
:100EF00093421DD1049B079A0333DB7F934217D1A2
:100F0000236C089A934213D1230069331B78099A02
:100F100093420DD1230068331B780A9A934207D17C
:100F20008E4B0B9A1B789B1A1A00531E9A410692FD
:100F30000021227D637D07919A4205D1227F637F44
:100F4000D31A5A425A410792854B0593039B002BB3
:100F500000D071E1200000F070FD002800D16BE1AD
:100F6000079B002B00D167E1049801F0B4F800283A
:100F700000D161E1794B1B78002B00D05CE1794B0B
:100F80001A78002A00D058E101321A70059B3133DB
:100F90001B78002B00D121E6059800F02CFF0028DB
:100FA00000D01BE6200000F05AFD80226E4B52005C
:100FB0009A6103996D4A116003995160C0221968C2
:100FC0000A431A60C022196892000A431A60C022BC
:100FD000196812010A431A6000E6012001219A688B
:100FE00010400A4202D0022299681FE79A686049BD
:100FF0000A409A605F4A604913680B405F4913607A
:101000000B6A5F4A13400B62544B1870FFF7F4FAF7
:101010000EE7464801F0B6FA80220021444BD20583
:10102000D9601A61072211205A61564A053410709E
:10103000554A52481180802292029A628022016AA7
:1010400052000A43026290224A499204086802430D
:101050000A608022996852050A439A600120FFF7CE
:10106000CBFA0122304B1C603C4B1A70E0E62E4A52
:101070001368E31A00D5DBE64049096A490008D441
:10108000092B00DCD4E6294801F07CFA0722334B17
:10109000EBE7802326491B068868053403438B60F1
:1010A00014602E4B0222E0E7214B9B68002B00DAF4
:1010B000B5E01D4B01341C600322284BD5E71A49CB
:1010C0000B68E31A00D5B3E60120194B053418600C
:1010D0009A6802439A600422204B0C60C5E7012203
:1010E000134B1B68134200D199E00F4B05221C6083
:1010F0001A4BBAE70C4B1B68E31A00D598E6214B54
:1011000010221B78112B01D180229202084B05344A
:101110009A6214221A609968103A0A439A60024B44
:1011200006221C600D4BA0E7CC000020EC00002044
:1011300000240140FFFDFFFF44090020D4000020EF
:1011400091000020FEE0F5058800002000700040BE
:10115000C8000020F800002058280008D300002014
:101160003C00002039000020000400500030014005
:10117000FFFFFFEF08270140FFFFBFFF0000014016
:10118000FFFEFFFFD2000020D00000207D4B1A6838
:10119000D20600D577E704211A680A423FD01D6CB9
:1011A000794B1B78112B16D1784B79481988ADB241
:1011B0002A00230089B2049001F0E8F9049B01346D
:1011C000DB795A1E934104225B421D40714B1D8006
:1011D0006D4B1A7089E76F4B198800291AD06B4B39
:1011E0006D481B88ADB2584301F0A2FA68436B4BBF
:1011F0004000984211D86A4901F09AFAA023DB0511
:101200001A691B6992065B0681B2DB0F6548D20F33
:1012100001F01AFA11220734DAE76348EEE7634B6C
:101220001B68E41A00D503E62DE7947CFF23002C0D
:1012300000D110E6137C0EE60022059B32331978AC
:1012400001235940039B002B02D00020584B1870FB
:10125000002A1CD000291AD0524BDB7C002B16D15F
:10126000534B1878002812D101221A708022514B5A
:10127000D2029A612C682B681B1BC72B00D9ADE4E6
:10128000FEF798FF002800D0A8E430BFF3E772B65D
:10129000494B4A48185C002800D09EE44848494C15
:1012A000185C1B5D984200D097E4474B03205C69B3
:1012B00023000340044200D08FE4002A2BD00029F1
:1012C00029D080223B4DD202AA61404A4049136096
:1012D000404A4148137080239B044B6003683F4A97
:1012E00004241340036003680200012003431360D9
:1012F0000B6923430B6101F0A7FA35490B69A3433E
:101300000B61FEF757FF002800D0AC6162B625489C
:1013100001F090F962E4069B002B00D05DE4049B91
:101320000333DB7F002B00D057E4BFF34F8F30BF78
:1013300053E42B4B2B48196800F084FDC0E41B7864
:10134000002B00D075E44AE52749DA6927488C4626
:101350001140814201D1FFF737FB0021FFF73BFB32
:101360000C20F968224A1140224A0A43FA60224AB4
:10137000F96801400429E7D0013A002AF8D1FFF7C3
:1013800000FBC04600240140D20000207800F81F76
:10139000EC000020D0000020B80B0000FFFFFE0F83
:1013A000FF0F0000D4000020FFFF0000CC00002051
:1013B0003800002000040050340100200A0800001A
:1013C00008080000090800000004014010E000E0E7
:1013D00000ED00E0C400002000700040FDDFFFFFD2
:1013E000C80000203C000020FF000F00AA000C00F5
:1013F0000C7FFFFF91800000A0860100030082188F
:10140000934200D1704719700133F9E7002310B5FA
:101410009A4200D110BDCC5CC4540133F8E70000FF
:10142000F7B51F0008AB1B780E0015000021242221
:1014300001930400FFF7E2FF074B9E4200D900260C
:1014400001232373019B266065602562A561677592
:10145000277563772377F7BDFFE0F505012341602A
:1014600002680649037383738A4203D8D218026064
:101470001800704743730420FBE7C046FEE0F50503
:1014800070B50400407D884201D06175A361207D64
:101490000025884207D0A069181A072803D92175AA
:1014A000A94221D00135617F914201D06277236248
:1014B000217F91424BD0206A0021181A072803D9B6
:1014C00022778A4213D00131012D44D00020012916
:1014D00041D0E27B002A04D0227D002A0DD00122D7
:1014E000228201312BD127E001256D42DBE701216A
:1014F0004942E9E704206573EBE7227C002A0ED11C
:10150000A568224E5D1BB542E9D8FA26F600B54221
:1015100005D3657C002D35D10135657463600131DB
:101520000DD1617C002907D0002A05D122606273A9
:101530000122A273921810430022E2732282626891
:101540009B1A134A934201D90023237370BD0021D3
:101550000800012DBDD1012263602273914205D1A3
:1015600000226274227DE173A36022740020012DA9
:10157000AFD122680748A5738242BBD80132280048
:101580002260A6E70131D1D0D9E7C046102700007C
:101590002F750000FEE0F50570B5134C134D435D4B
:1015A0000155043C0251124CDBB2065D002E05D100
:1015B000104E0133865DDBB29E420BD101230E4AF1
:1015C0000355815A0D4B994203D0835A01339BB284
:1015D000835270BD445DE40004192171415DC9006E
:1015E0000A504355F5E7C04604080000080800000B
:1015F0000A080000090800000C080000FFFF0000B6
:1016000070B5144D0300465D134C144AF0B2002E21
:101610000DD01348185C087180200001185808602C
:10162000195D0220C9B2995400225A5570BD9D5CC3
:101630001C5DA542FAD0985CC000181800790871AA
:10164000985CC000C0580860995C01200131C9B2A3
:101650009954EBE70A080000080800000908000098
:1016600004080000F7B505000C001600022A16D188
:10167000012142680180521842601A791B681000EB
:101680009207D20F6277227700220840607520759A
:10169000A3612362E273228221736360F7BD012A92
:1016A000FCD18A7B0F6800924A7B20000192197955
:1016B0001B688A07D20F3140FFF7E2FE2B78002B20
:1016C000ECD0800704D56B686E7001336B60E5E782
:1016D000009B2760A373019B6373DFE70122F0B5D2
:1016E000FF270F2689000E4D41185242814201D139
:1016F000D043F0BD036800249C466346E3403B4072
:1017000053401A0933409B005B5908345A4013096F
:101710003240920052595A40202CEED10430E5E775
:1017200078280008114B026870B5040000259A4221
:101730001AD183680E4A934216D8C268012A13D878
:1017400042680169D24391420ED1DB4342699A4219
:101750000AD106218669FFF7C1FF864204D1054BF5
:10176000E569ED186B425D41280070BD01344451BC
:10177000FFE0F505CCABB2BCF0B58FB003914022D1
:10178000002104000126FFF739FE5F230027E360F4
:10179000A672FB0001930833049706AD0137059349
:1017A0000296039B03982A001B680199C06898471A
:1017B00000281ED1E67228600290019B059A013331
:1017C000019304359342ECD1029B002B05D006AD6A
:1017D0002800FFF7A7FF002811D1602FD9D1E37AA5
:1017E000002B02D1637A002B01D1012323720FB0A9
:1017F000F0BD2B68002BE0D00023A372DDE7627AF6
:101800006B68002A15D061685A1A8B420BD1AA68FE
:1018100023689A4205D1EB685A1E9341227A93427B
:10182000DBD0E672D9E7802109068A42F9D0002A86
:10183000D3DD6360089B049A2360099BE2605A1E13
:10184000934166722372C8E770B51E0003003C33F3
:101850001D780400002D20D1114B99421BD8114B4B
:10186000016283614368C9430133C361DB43426260
:101870008362C16206211830FFF730FF0A4B2063F4
:10188000E06860216363013000F0D8FF65610135D5
:101890002161A663E563280070BD0025FBE7C04613
:1018A000FFE0F5050134445134544D431300020068
:1018B000F0B53C3285B00192127804000D00002A88
:1018C00011D027003D373A78C868002A50D08A687E
:1018D00019009047002806D0012806D00023A387CE
:1018E0003F340133237005B0F0BD63690726002B38
:1018F00000D05E1E21692B68C900E868891903AA17
:1019000098470028EAD000226369934202D0063645
:10191000B600325903999142E0D1002601333E705E
:101920006361092BDFD121692B68C900E868891937
:1019300003AA98470028D1D02300B20018339A5840
:10194000039B9A42CAD10136082EECD1236A019931
:101950002360636A5A1E93412372E3690022636025
:101960002369A272E360012363720A703E34B9E70F
:1019700062690726002A00D0561E21696D68C900D9
:101980008919002A02D00636B6003259A847012329
:10199000002802D1A0873F34A4E73B70A3E710B52D
:1019A0000400130024300A002100FFF75BFE23002F
:1019B0006C331A78002A09D0A21DD27F002A05D0E4
:1019C000A16A226F914201D000221A7010BD421DFF
:1019D0000300D07F002801D16C331878704770B5B0
:1019E00004000D00FFF7F3FF002804D129002000B8
:1019F000FFF734FD70BD012365602373FAE7020031
:101A00000300002068321278824213D11A00353266
:101A1000127882420ED0D96A1A6891420AD119000E
:101A20005A1D34310978D27F914203D10633DB7FCE
:101A300001305840012318407047030010B5683347
:101A40001A78002304009A4206D1FFF7D8FF012339
:101A5000002801D16C3423780120184010BD020009
:101A60006C321378002B06D1013313708384836AA0
:101A70000133836203677047F7B504000F00160057
:101A8000002174221D00FFF7B9FC200039002C3022
:101A9000FFF772FE01232B40AD07ED0F00953200DA
:101AA0002000E16AFFF7BCFC220034321278631D8B
:101AB000DA7732331B78002B02D02000FFF7CFFFFC
:101AC000F7BDF8B50700050068371E003B78040035
:101AD0002C35002B02D02800FFF7E8FE23006B33E3
:101AE0001A78002A04D0002220001A70FFF7B7FFEE
:101AF00023006A331A78002A15D000221A70A21D1A
:101B0000D27FE36A002A09D0616EA26A914205D1B0
:101B1000002B03D12A7A002A00D1A38422689A429A
:101B200001D10023A3733B78002B20D123006C3319
:101B30001B78002B1BD1002E19D0631DDA7F002AE1
:101B400003D00122A31DDB7F5A406B7A2168002B52
:101B500009D0E36A8B4206D12B7A934203D1A31DAD
:101B6000DB7F002B03D02800A36AFFF76DFEF8BDD2
:101B700070B504003130007800280AD020003330DE
:101B80000078002805D125686068A847002801D1A1
:101B90002086002070BD37B505236A4601AD13804D
:101BA0000C002A006946033BFFF7E2FF002806D03D
:101BB000712368782070184043425841C0B23EBD3E
:101BC000C023F0B595B004000D0001929B0099422E
:101BD00021D2030032331B78002B1CD10300303399
:101BE0001B78CE08002B02D0836AB3422ED0032389
:101BF0001F22002103A80293FFF700FC730102AF2C
:101C00001A0A7A70BB703900232320000BAAFFF751
:101C1000AFFF002802D1002015B0F0BD2100200048
:101C20000BAB083128301A795F7912023F043A432E
:101C3000DF7804333A439F783F063A4304C1884231
:101C4000F1D1230001223033A6621A7007231D4010
:101C50000235AD002B59019A01201360DCE7C02347
:101C6000F0B59B0004000E00150089B0994202D324
:101C7000002009B0F0BD0300323301931B78002B24
:101C8000F6D1062202A94A710200CF1D3032390076
:101C90001370FFF780FF0028EAD00C233A781A422D
:101CA000E6D102AA02A920000B3B06320531FFF75C
:101CB0005FFF0028DCD039002000FFF76CFF002810
:101CC000D6D002233A781A42D2D09E4004A90B7093
:101CD000330A4B702B0A0B712B0CCD704B712D0EF0
:101CE0000723200006AA8E708D71FFF741FF0028A0
:101CF000BED00123019A1370BBE7030013B5323342
:101D00001A78002A01D1022016BD00221A706B46F3
:101D1000DC1D2100FFF73FFF0028F4D00E232278BE
:101D20001A42F0D10120EFE7F0B5040089B0382263
:101D30000D000021FFF762FB2300270006CD06C33C
:101D4000012504236A463137537100219B33062253
:101D50003D7003A80293FFF751FB6A4669462B00CA
:101D6000200006320531FFF703FF002814D06B4630
:101D7000DE1D31002000FFF70EFF00280CD00E23DF
:101D800032781A4208D105AE32002000043B02A985
:101D9000FFF7EEFE002803D10020387009B0F0BD37
:101DA000735D7F2BF8D10135072DF9D1F379C22B63
:101DB000F2D1337A222BEFD13822737A9343EDD0CC
:101DC000EAE70000034BC1600360034B4360034B31
:101DD00083607047C11B00085F1C0008FB1C0008E3
:101DE0000200313203001078002803D00120333381
:101DF0001B78584070470300F7B532331B78040056
:101E0000002B02D000252800FEBD030031331D78D1
:101E1000002DF7D0070033373E78002EF3D1B923D9
:101E20006A46694693710631B83B0732FFF7A0FE58
:101E30000028E7D0230030331E70012334343B7078
:101E40002670E0E70300F7B53133040018780D0081
:101E5000002816D0220033321378002B12D026002F
:101E600034363378002B12D16A46694603339371B6
:101E700027686068023B07320631B847002802D164
:101E800020860020FEBD0123E5623370F9E7E36A96
:101E9000CD1A012DF5D9002313703370F2E700003D
:101EA000F8B504680E4B06000F009C4200D91C00D8
:101EB0000825B3790A21002B08D1002C01D1082D67
:101EC00004D10A21200000F0B9FCC9B2013D200074
:101ED00079550A2100F02CFC0400002DE9D1F8BD51
:101EE000FFE0F50570B50D000B69040098476B68BD
:101EF000012098470023621D6384D377A3680133D0
:101F0000A3600E2323706B6998477830606070BDC2
:101F1000F8B50E00040019001000B56806AB079A6A
:101F20001F78A847051E05D131002000FFF7DAFF12
:101F30002800F8BD0122E31CDA772770F8E70000DB
:101F4000F0B585B002920AAA04001278002001912F
:101F5000072B20D851B281421DDB11001039CDB2C0
:101F60005F2D04D8834202D00500072B17D10199B9
:101F7000013906294AD8072B48D113003A3B0A2BCE
:101F800009D80B210198324B41435B189B183A3B0F
:101F900018788000C0B205B0F0BD0C3901350B29AE
:101FA000FBD800200929E2D8665D092EDFD8052577
:101FB000012775430600274C49086419615CFC1A27
:101FC0000391E4000399F14039421AD0E543ED173B
:101FD0002540A11D8C460095082901DD08218C466D
:101FE000009D002165450BDA65463900A94001399D
:101FF0008C463900009DA9404D4261462940C9B236
:10200000084301360634072EDCD1B0E7002BC2D1DD
:102010000299FF291AD011006A39CCB2132C15D8B5
:102020007E33002912D0112910D01239663B0129C4
:102030000CD910312A330E2908D8D243920705D083
:10204000029A89083C33914200D33C3B1843A2E7F3
:10205000B82800081029000810B50100008C0028DD
:1020600019D110BD0133DBB20400DC401442F9D0B9
:102070009A4090430884072B10D80C2201205A4321
:102080001032D2B2CC1DE3770B0028310833D87759
:1020900001200A70E5E700230122E5E7082B05D0BF
:1020A00000200200092BEDD16A32EBE707203A222B
:1020B000E8E770B50C003C2200210500FFF79EF90F
:1020C0002369984763680120984723680020984750
:1020D00000232B7070BD030002780020824203D1E0
:1020E0000333DB7F0130584070470000F0B58FB0FC
:1020F0000393C31C02920493DB7F04000E00149D23
:10210000159F002B16D03800CB689847002805D0C3
:10211000022805D131002000FFF7E4FE0FB0F0BD2A
:102120000023E21CD37723780D2B03D173699847E2
:1021300078306060039A2378002A23D00021A21D02
:10214000D177029A002A03D0A21DD27F002A04D0A0
:10215000013B092B1CD90023029320780F28DDD8DE
:1021600000F0DCFA2600360040004C0070008A00C7
:10217000DB002201370140016201BE01C601DA0124
:10218000EA01FC01DA1E072ADBD80122A31DDA7757
:10219000631DDB7F002B02D00B232370DBE70120C4
:1021A000736898477369984778300D236060F4E747
:1021B000029B002BB2D0012073689847012033683E
:1021C00098477369984701233C3060602370A5E706
:1021D0006368FB1AA2D4039B002B9FD00237022313
:1021E0006760F3E76368FB1A98D400207368984728
:1021F00073699847023003236060E7E76368FB1A5E
:1022000000D58BE70022231DDA772A000C3303CA9E
:1022100003C3210028002931FFF742FE03233100C8
:1022200000932000D24A01971633FFF771FE002871
:1022300000D173E78023DB0020002384FFF70CFF2D
:102240000423C3E7002306AA137023000833DB7FAF
:102250000F21503B5370230028331B7819401B0972
:102260001033D3700523917000930197013B310027
:102270002000FFF74DFE51E7E31DDA7F072A2ED835
:102280000C2353430A221033DBB221002831097892
:102290009B185B1A039102931F2B01D91F230293F2
:1022A000402304AA1372230000250833049321332A
:1022B0000593029B9D421FD10622EDB26B1C00923A
:1022C00031002000DBB2019706AAFFF721FE0028AB
:1022D00000D123E728342378ED1825701EE7082A5B
:1022E00004D0092A05D16A230B32CEE70B223A2308
:1022F000CBE780220023C8E7039B627D5819049B2B
:10230000C0B2DB7F217D00900598FFF719FE0822FF
:1023100004AB01359B185855CBE7E31DDA7F072A3C
:1023200032D80C2353430A221033DBB2250021009C
:1023300028352E789A180831964203DBCA7F2B7015
:102340000132CA77CB7F834200D879E72000FFF7BC
:1023500083FE002800D073E72300220018331032D8
:1023600003CA03C321002000082229313130FFF7BE
:102370004DF80122231DDA77631DDA7F0723002A37
:1023800000D123E7023321E7082A05D0092A07D123
:1023900000206A230B32C9E707200B223A23C5E746
:1023A000072080220023C1E7724B04AA1381142363
:1023B00093720C3B0093310020000197053B06AA65
:1023C000FFF7A6FD002800D1A8E601230534E37736
:1023D000A4E6694B04AA1381092301970093073BE4
:1023E00006AA44E7231DDB7F002B0CD0A2692B68D3
:1023F0009A4208D1A28BAB889A4204D1A27FAB79D2
:102400009A4200D18AE623002A00103303CA03C38C
:102410005A4A2B68934200D91300E3602300082234
:1024200039331A700A23D1E6220039321378013B7E
:10243000DDB21570A37DE668002B08D1002E01D116
:10244000072D04D10A21300000F0F8F9C8B2631951
:10245000293318700A21300000F06AF9E060002D7D
:1024600000D05BE6261DF37F002B36D021002B0029
:102470002A00293101350F78087A874203D02800D5
:10248000904003439BB201320131082AF3D1217DF0
:10249000227F914202D0802252001343617D627FED
:1024A000914202D080229200134320002384FFF740
:1024B000D3FD002800D0C3E62300220018331032D9
:1024C00003CA03C321002000082229313130FEF75E
:1024D0009DFF0123F377083378E68023DB00E4E7F0
:1024E000274B04AA13810C23019700930A3B77E73B
:1024F000204B04AA138110239372033B00933100F5
:10250000200001970A3B06AAFFF702FD002800D130
:1025100004E6002305345AE76368FB1A00D5FDE59D
:102520000120736898473368002098470023221DD4
:10253000D377621DD37749E66368FB1A00D5EDE5D2
:10254000336800209847FA239B00FF180023029A63
:1025500067609A4200D139E60F3337E6029B002BC1
:1025600003D06368FB1A00D5D8E500232EE6C046E9
:1025700042290008008DFFFF00AFFFFFFFE0F505D7
:1025800000AEFFFF0023C3800372704770B50E00DA
:102590001100FA221D00194B0400F3189BB292009F
:1025A000934204D84B1E164A9BB2934203D9002390
:1025B000E380237270BD1348704300F0B9F8124BEA
:1025C000C218124B9A42F2D80122114BA08025600A
:1025D000E271984203D800232372A371EAE7237AB9
:1025E000002BE7D10B498842F7D9A3790133DBB23D
:1025F000A371022BDED92272DCE7C04618FCFFFF74
:10260000FD0F0000B80B0000C0F9FFFF020800003A
:10261000FD0B0000070C00000023C2799A4207D08E
:10262000027A9A4204D00268891A1E228A425B41C9
:102630001800704710B5182200210400FEF7DEFED6
:102640000023A37510BD000070B5314D0124A942CF
:102650000ED8002A10D1C47404238375002383820A
:1026600043748381036070BDC4740233DBB2F4E74A
:10267000C474002AF9D1EFE7002BF5D0002384754C
:10268000C374447B037B6200042B38D18518AE8869
:102690000568AD1B0560032582189180026801342E
:1026A0008A182C4002604473AB42DCD900259208A2
:1026B000837C92B2C281AB4200D0057C0023154ED0
:1026C0005C00345B9D4201D91E3CA4B2A2421AD3E5
:1026D0000133042BF4D10122037482745A42534112
:1026E00003750D4B994210D8437CFF2B04D0013366
:1026F000DBB24374052BB6D901234375B3E701332D
:10270000DBB20373C7E7DBB2E5E700234374AAE754
:10271000D81000005C290008150D000003B47146B4
:10272000490840004900095A49008E4403BC7047DB
:10273000002243088B4274D303098B425FD3030A00
:102740008B4244D3030B8B4228D3030C8B420DD313
:10275000FF22090212BA030C8B4202D312120902A1
:1027600065D0030B8B4219D300E0090AC30B8B42DF
:1027700001D3CB03C01A5241830B8B4201D38B038D
:10278000C01A5241430B8B4201D34B03C01A524132
:10279000030B8B4201D30B03C01A5241C30A8B4275
:1027A00001D3CB02C01A5241830A8B4201D38B0260
:1027B000C01A5241430A8B4201D34B02C01A524104
:1027C000030A8B4201D30B02C01A5241CDD2C30976
:1027D0008B4201D3CB01C01A524183098B4201D3F2
:1027E0008B01C01A524143098B4201D34B01C01ADD
:1027F000524103098B4201D30B01C01A5241C30855
:102800008B4201D3CB00C01A524183088B4201D3C3
:102810008B00C01A524143088B4201D34B00C01AAF
:102820005241411A00D20146524110467047FFE71B
:1028300001B5002000F006F802BDC0460029F7D01F
:1028400076E770477047C04601B40248844601BC31
:10285000604700BF01000020C50100081502000804
:10286000FD030008D502000895020008A901000830
:102870000000000000FF0100000000006410B71D10
:10288000C8206E3BAC30D9269041DC76F4516B6B9E
:102890005861B24D3C7105502083B8ED44930FF060
:1028A000E8A3D6D68CB361CBB0C2649BD4D2D38616
:1028B00078E20AA01CF2BDBD00000000000000008C
:1028C0000000001F1511001F051A001F051A1F0226
:1028D0001F001E051E001B041B1F051A0017151DD7
:1028E00000011F011F1010000E110E000000000E4D
:1028F0001111001F041F000E111D1F150A001E05D7
:102900001E00011F010E110E001F050200011F0114
:102910003E5149453E00427F4000426151494621B7
:1029200041454B311814127F1027454545393C4A23
:102930004949300171090503364949493606494973
:10294000291E00AE8D10A83FD300A1C8A640A481C7
:1029500010D9F1D580DA122002DB3000DE0D740EC2
:04296000D80E6E0F10
:1029640010210A4B0A4A9A600A4A9A601A680A4372
:102974001A60BFF34F8FBFF36F8F30BF1A688A435B
:102984001A60BFF34F8FBFF36F8F70470020024070
:0829940037261504FDFCFBFAD7
:04000005080000ED02
:00000001FF
