:10C400002406250626062706280629062C062D06BC
:0AC410003F065B4F666D7D077F6FEE
:10C41A001200000000000000037A5200017E0001B1
:10C42A00030C01028001480000001A00000000000D
:10C43A000000000000000004000000000E108A0244
:10C44A008903880487058606850784080400000096
:10C45A00000D0404000000000A8401850011067F13
:10C46A0011077E11087D11097C110A7B0400000066
:02C47A00000BB5
:10C47C00314000283C4000200D433E404000B012AB
:10C48C0008CD0C43B012E2C5B24001A560015D0AB3
:10C49C000E5D5E028E4F0018B24003A560011D4E6A
:10C4AC0000184C430D9F03208E4D08205C433041F7
:10C4BC001A15318010000A4C7E4010003D4000C41B
:10C4CC000C41B012F6CC0C4A0D410E4A3E501000F5
:10C4DC003F4D5A4C01005A0E694C49DACF490000C5
:10C4EC002C530E9CF5233150100019173041824308
:10C4FC000006B2D000106401B2400FFF0A06B24031
:10C50C000F0F0C0682430E06B2400F001406824336
:10C51C00160682431806B24006000606F2402100B9
:10C52C002006F24084FF2106B240A0F00806B2407B
:10C53C005D380006D243002030415C4218027CF08A
:10C54C00FCFF5D4200027DF003004CDDC24C180282
:10C55C0030414F15F2F0FCFF1C02B01246C55C4294
:10C56C0001200C930B20B24020001203B2401000AB
:10C57C000203B24014010003D2430120B1C0F00009
:10C58C000A004B1700135F151C4204201D420620A5
:10C59C000A4C1A530B4D0B63824A0420824B062023
:10C5AC00B250E80002201C4202200C930F34B2500F
:10C5BC00008002201C4204201D4206200E4C1E53FB
:10C5CC000F4D0F63824E0420824F0620B1C0F00045
:10C5DC000C005A1700130A1531801C00B240805A07
:10C5EC00CC01C2430202C2430302C2432202C24331
:10C5FC002302C2434202C2434302C2436202F240DC
:10C60C00FCFF0402F2430502F2432402F24325022A
:10C61C00F2434402F2434502F2436402C24306026F
:10C62C00C2430A02B2D000018801B24003A56001E6
:10C63C0092C330013D4008203C400018BD4C000026
:10C64C002D533C901018FA233D401820BD4C00008F
:10C65C002D533C902018FA230F412F530E413E527C
:10C66C000D412D523C400820B0120CCA81430000F1
:10C67C004F431D4104001E4106003C402820B012CF
:10C68C0084C8B01246C5F2F0FCFF1C02F2D00300C5
:10C69C001A02B24020001203B24010000203B24052
:10C6AC0014010003D2430120B012FAC40E413E50D3
:10C6BC000C001C4228201D422A20B01290CB0C41A9
:10C6CC003C500C00B012BCC4034332D2034332C200
:10C6DC0003431C4204201D420620034332D2034371
:10C6EC005A4200027AE30E4A5E03814D00000F4C61
:10C6FC005EF34D4A5DF33C402820B012F4C8C2935F
:10C70C0032201024814300003F4094C41D42282055
:10C71C001E422A203C400820B0129ECA4C9318247A
:10C72C00C2433220C29330201824C293002002202E
:10C73C00B012FAC40E413E500C001C4228201D427F
:10C74C002A20B01290CB0C413C500C00B012BCC44F
:10C75C00034332D0D8000343BA3FD2923520342061
:10C76C00F723D2923B203A20F32332C203437AF0D0
:10C77C0003007C4003005CC200024A9CA5235C427F
:10C78C001C027CF003004C939F23C29300201924BD
:10C79C00A2C200068243000682430806C24303027B
:10C7AC00C2432202C2434302C243620282430A06CC
:10C7BC0082430C0682430E06B2F0FFEF6401C243C3
:10C7CC0000208243000382430203C2430120B012C3
:10C7DC0046C5034332D0F8000343793F0A150D4C8C
:10C7EC000B4C3B500C003C433E4D0F4E47180F5F1B
:10C7FC000CEF7F420A4C5C020A9312383F530F93A2
:10C80C00F9233EF000FF0CEE7E420F4C5C020F93BE
:10C81C000A383E530E93F9230D9BE6230A17304139
:10C82C003CE02110EB3F3CE02110F33F1A150A4C81
:10C83C004943BC907CC10E001B209C930000182027
:10C84C008C9302001520B012E8C78A9C0C001020B3
:10C85C0059433C40F5051C9A0A000928BA90F50585
:10C86C000A0006203C40FFE01C9A0800012C4943BA
:10C87C004C495CF3191730412183914102000000AF
:10C88C004A150A4C064D074E814F0C0018410C00FE
:10C89C0019410E007E4010004D433C52B01208CDA1
:10C8AC003C40F5050C9707283790F50506203C40D1
:10C8BC00FFE00C96022C464347438A4600008A4709
:10C8CC000200DA4308008A4804008A4906008A48B4
:10C8DC0014008A4916008A480E008A49100046172F
:10C8EC00A1410200215330412183914102000000FB
:10C8FC002A15494D3EF0FF00814F08001A410800EF
:10C90C001B410A005D9C0D000624CC490D008C4A8D
:10C91C000E008C4B10005F4C0D00DC9C0D000C00CD
:10C92C004224084A094B188C0E00197C10000993FC
:10C93C0004207D4007000D98362CCC4F0C00CC9E6B
:10C94C0013000624CC4E13008C4A14008C4B16009A
:10C95C005D4C1300DC9C130012002724084A094B81
:10C96C00188C1400197C1600099304207E400700D3
:10C97C000E981B2CCC4D12000D931824DC43080090
:10C98C008C4A04008C4B06000D931F248C43000032
:10C99C008C430200CC430900DC430A002817A14158
:10C9AC000200215330414F43CA3F4D430F93E623BE
:10C9BC001A8C04001B7C06000B9304203D402F7541
:10C9CC000D9AEC2FCC430800E93FCC931200E623E0
:10C9DC002E4C1D4C02003F40F5050F9D0E283D903E
:10C9EC00F50504203F40FEE00F9E07281E538C4E99
:10C9FC0000000D638C4D0200CF3FDC430900CE3F9D
:10CA0C006A15094C084D074E064F344038C884123D
:10CA1C004A4C454C0C493C50100084123CF0FF0031
:10CA2C005AE34B4A05930E200C930C2088430000CC
:10CA3C0088430200874300008743020096430000AE
:10CA4C0064173041059312240C9310241C491400D4
:10CA5C001D4916001C8904001D7906004E430E9DCD
:10CA6C0004380D9303200C9301245B430C4B5C0E98
:10CA7C00095C98490800000098490A00020097498F
:10CA8C0004000000974906000200864B00005C433E
:10CA9C00D73F4A1531801A00084D094E0A4F1741ED
:10CAAC0026003D40F5050D9E07283E90F505092012
:10CABC003D40FFE00D98052C4C4331501A004617B1
:10CACC0030410F410E413E5006000D412D53B01226
:10CADC000CCA264116E31D4106001D531C410800DB
:10CAEC000C63814D0600814C080091430A00814380
:10CAFC000C00814D0E00814C1000814812008149C0
:10CB0C00140081431600B1407CC118000C413C500C
:10CB1C000A00B012E8C7814C16004F437E40070054
:10CB2C000D460C478A124C93C727094139500A000D
:10CB3C0048433F490E480D460C478A124C93BC277C
:10CB4C00185338900700F5233F407CC17E40070006
:10CB5C000D460C478A123CF0FF00AF3F3CF0FF0043
:10CB6C000D4C5D0F5D026DF30E4C45190E105E06FB
:10CB7C006EF24DDE0E4C44190E105EF34DDE7CF25F
:10CB8C004CDD30416A1531800600074C064D0A4ECB
:10CB9C007E4010004D430C4AB01208CD084A385262
:10CBAC003A500E0049437E400A004F430C470D4655
:10CBBC00B012E8CC554C10C48147040004467E40AA
:10CBCC000A004F430C470D46B012DACC074C064D09
:10CBDC000D455D070E455E037C4003000C99202833
:10CBEC005D026DF35E066EF24DDE4C455CF34DDC82
:10CBFC00C84D00004C45B01268CBC84C01000493E2
:10CC0C0005207C4009001C910400062C1953285364
:10CC1C003A50FEFF3992C723315006006417304159
:10CC2C004C45814D0200814E0000B01268CBCA4CBD
:10CC3C0000001D4102005D026DF32E415E066EF296
:10CC4C004DDE4B455BF34DDBCA4D0100D83F4A1519
:10CC5C000A4C0B4D7C402100584349430F9B042840
:10CC6C000B9F07200E9A052C3C530C932D240F93ED
:10CC7C000D344C434D43074807D907931420819337
:10CC8C000C0002240C4A0D4B46173041064E074F40
:10CC9C00065E076F0E460F47064807490658076998
:10CCAC0008460947DB3F0B9F08280F9B02200A9E72
:10CCBC0004280A8E0B7F0CD80DD912C3091008104A
:10CCCC0012C30F100E10D73F4C434D43D83F218356
:10CCDC0081430000B0125ACC21533041218391433F
:10CCEC000000B0125ACC215330410F4C0E5D0D9EFA
:10CCFC0001203041FF4D00001F53F93F0E5C0F4CDB
:0ECD0C000F9E012030411F53CF4DFFFFF93F16
:02FFE6005EC5F6
:02FFF80092C5B0
:02FFFE007CC4C1
:040000030000C47CB9
:00000001FF
